:020000040800F2
:1000000068A60020054D01080D3501080F350108CF
:1000100011350108133501081535010800000000ED
:10002000000000000000000000000000173501087B
:1000300019350108000000001B3501081D350108B5
:10004000AD4D0108B14D0108B54D0108B94D01088C
:10005000BD4D0108C14D0108C54D0108C94D01083C
:10006000CD4D0108D14D0108D54D010821350108BC
:1000700027350108D94D0108DD4D0108E14D010882
:10008000E54D0108E94D0108ED4D01082D35010848
:1000900033350108393501083F350108F14D0108B4
:1000A000F54D010845350108F94D0108FD4D0108E0
:1000B000014E0108054E0108094E01080D4E0108C8
:1000C000114E0108154E0108194E01081D4E010878
:1000D000214E0108254E0108294E01082D4E010828
:1000E0004B350108314E010800000000354E010873
:1000F000394E01083D4E0108414E0108454E0108A8
:10010000494E01084D4E0108514E0108D9360108EB
:10011000554E0108594E01085D4E0108DF360108B1
:10012000614E0108654E0108694E01086D4E0108D7
:10013000714E0108754E0108794E01087D4E010887
:1001400000000000000000000000000000000000AF
:10015000814E0108854E0108894E01088D4E010827
:10016000914E0108954E0108994E01089D4E0108D7
:10017000A14E0108A54E0108A94E0108000000008B
:10018000AD4E0108B14E0108B54E0108B94E010847
:10019000F5360108BD4E0108C14E0108C54E0108E3
:1001A000C94E0108CD4E0108D14E010800000000E3
:1001B000D54E0108D94E0108DD4E0108E14E010877
:1001C000E54E0108E94E01080000000000000000B3
:1001D0000000000000000000ED4E010800000000DB
:1001E000000000000000000000000000000000000F
:1001F0000000000000000000F14E0108F54E01086B
:10020000F94E0108FD4E010800000000014F0108F1
:10021000054F0108094F01080D4F0108114F010852
:10022000154F010800000000194F010800000000F0
:100230001D4F0108214F010800000000254F010853
:10024000294F01082D4F0108314F0108354F010892
:10025000394F01083D4F0108414F0108454F010842
:10026000494F01084D4F0108514F0108554F0108F2
:10027000594F01085D4F0108614F0108000000005F
:10028000654F0108694F01086D4F0108714F010862
:1002900000000000754F0108794F010800000000C0
:1002A000000000007D4F0108814F0108854F0108C3
:1002B000894F01088D4F0108914F0108954F0108A2
:1002C000994F01089D4F0108A14F0108417800781E
:1002D00040EA01207047C178827842EA01224178E1
:1002E00041EA0221007840EA012070470170090AC2
:1002F000417070470170090A4170090A8170090A4A
:10030000C1707047002A05D011F8013B00F8013B8D
:10031000521EF9D1704700F8011B521EFBD17047E5
:1003200010B4034613F8010B11F8014B001B521EC9
:1003300001D00028F6D010BC7047034600E05B1CDB
:100340001A78100001D08842F9D1704770B40023A8
:100350001C4601E00123641C022C10D2964A02EBD9
:1003600004152A68002AF5D00668B242F3D16A68FB
:100370008668B242EFD1AA684569AA42EBD1022C45
:1003800007D1002B01D1022901D100200DE012205C
:100390000BE0002906D1884800EB04108089B0F5F5
:1003A000807F01D1102000E0002070BC7047002148
:1003B00000E0491C012904D87F480A018058002820
:1003C000F7D1022901D1002070470120704770B495
:1003D00002460023784C00E05B1C022B0FD2180170
:1003E00025581668B542F7D1251D2D589668B54297
:1003F000F2D104F1080528585569A842ECD1022B26
:1004000016D1002300E05B1C022B03D218012058F8
:100410000028F8D1022B12D01801251816682E607A
:1004200096686E60526904F1080632500020A88177
:1004300014EB0312002904D09089002801D0002079
:1004400009E0002902D04FF4807001E09089401C3F
:1004500090815B1C184670BC704710B4401E022887
:1004600013D2000154490A1893891C46B4F5807FC1
:1004700000D100231C0000D05B1E93819BB2002B97
:1004800001D100220A50002000E0022010BC704779
:1004900010B40021484B06E00A019C58844201D167
:1004A00000249C50491C0129F6D910BC7047F8B5AE
:1004B00004460025E078002820D0666B01233246F0
:1004C00004F13801607801F031FB002801D00125EA
:1004D00014E02846E070A06A301A216A88420DD2E2
:1004E000A77809E0206A86190123324604F1380111
:1004F000607801F01BFB7F1E012FF3D82846F2BD68
:1005000070B504460D460026606B854211D020462A
:10051000FFF7CDFF06000CD101232A4604F1380174
:10052000607801F0F8FA002802D04FF0FF3501267C
:100530006563304670BD38B50446FFF7B8FF050067
:1005400038D1207803282DD1207901282AD1A289F9
:10055000002104F13800FFF7DEFE4AF6552104F2CF
:100560003620FFF7C3FE154904F13800FFF7C2FE3D
:10057000134904F50770FFF7BDFEA16904F5087083
:10058000FFF7B8FE616904F50970FFF7B3FE626A10
:10059000521C6263012304F13801607801F0C6FA4D
:1005A0000020207100221146607801F0CAFA00286C
:1005B00000D00125284632BD6065002052526141BD
:1005C00072724161891EC269921E914201D300205C
:1005D00070474289006B02FB0101084670472DE914
:1005E000F0410C460568022C70D3E86984426DD254
:1005F0004FF0FF362878012804D067D303284BD06A
:1006000032D363E004EB5407A96AA889B7FBF0F082
:1006100041182846FFF774FF002858D107F1010858
:10062000A889B7FBF0F100FB117705F13801CF5D28
:10063000A96AB8FBF0F041182846FFF761FF0028CF
:1006400045D1A8893E46B8FBF0F100FB118805F1C1
:10065000380010F8080046EA0026E00701D5360900
:1006600035E0C6F30B0632E0A96AA8894008B4FB5E
:10067000F0F041182846FFF743FF002827D1640017
:10068000A889B4FBF0F100FB114405F138002044C7
:10069000FFF71CFE06461AE0A96AA8898008B4FB89
:1006A000F0F041182846FFF72BFF00280FD1A400D7
:1006B000A889B4FBF0F100FB114405F13800204497
:1006C000FFF709FE064626F0704600E00126304698
:1006D000BDE8F0812DE9F84304460E461546022791
:1006E000022EC0F09080E069864280F08C802078F5
:1006F000012805D0C0F0878003285ED042D382E075
:1007000006EB5608A16AA089B8FBF0F04118204614
:10071000FFF7F6FE070076D108F10109A089B8FBC2
:10072000F0F100FB118804F138004044F10705D5D1
:10073000017801F00F0141EA051100E0294601703E
:100740000120E070A16AA089B9FBF0F041182046B1
:10075000FFF7D6FE070056D1A089B9FBF0F100FBE8
:10076000119904F1380000EB0901F00701D52D09BA
:1007700004E02D0A087865F3030005460D7001209A
:10078000E07040E0A16AA0894008B6FBF0F0411893
:100790002046FFF7B5FE070035D17600A08929462F
:1007A00089B2B6FBF0F200FB126604F13800304467
:1007B000FFF79CFD0120E07025E0A16AA089800878
:1007C000B6FBF0F041182046FFF79AFE07001AD159
:1007D000B600A089B6FBF0F100FB116004F138010E
:1007E0000844FFF778FD000F60F31F75A0892946C4
:1007F000B6FBF0F200FB126604F138003044FFF75C
:1008000079FD0120E0703846BDE8F283F8B5054671
:100810000E4611462F68012E2DD9F86986422AD23C
:10082000002906D04FF0FF323846FFF753FF010092
:1008300026D131462846FFF7D2FE04001FD0012CF6
:1008400019D014F1010F18D0002231463846FFF7B5
:1008500041FF010014D1B869F969891E884205D2A7
:10086000401CB861387940F0010038712646F869BB
:100870008642DED303E00220F2BD0120F2BD00205B
:10088000F2BD2DE9F04180460C00D8F8006007D198
:100890007569002D02D0F06985420ED301250CE068
:1008A000FFF79DFE012801D8012043E010F1010F60
:1008B00040D0F16988423DD325462F467F1CF06920
:1008C000874202D30227012D2BD939464046FFF734
:1008D00086FE002807D001282CD010F1010F29D066
:1008E000AF42EBD11DE04FF0FF3239463046FFF703
:1008F000F1FE002806D1002C04D03A4621463046AD
:10090000FFF7E8FE00280ED17761B069F169891E12
:10091000814201D3401EB061307940F00100307156
:1009200007E0002006E0012802D14FF0FF3700E089
:1009300001273846BDE8F0810368C06A021D988926
:10094000B1FBF0F05989B0FBF1F003E0884206D327
:10095000401A083211680029F8D100207047516808
:10096000081870472DE9F04105460E462F68B6F588
:10097000001F02D216F01F0F01D0022046E06E6168
:10098000AC68002C03D13878032800DBFC6A002C0B
:1009900009D1304640093989884201D3022035E027
:1009A000F86AE8611EE07889B7F80C8008FB00F867
:1009B00006E0022C10D3F86984420DD2A6EB08069B
:1009C000464521460AD32846FFF709FE044614F19E
:1009D000010FEED1012019E0022017E03846FFF7A1
:1009E000F1FDE861AC61E869002801D102200DE069
:1009F000B989B6FBF1F10818E861B889B6FBF0F1E6
:100A000000FB1166B819383028620020BDE8F0817B
:100A10002DE9F04106460C463768D6F8148008F1F7
:100A20002008F069002802D0B8F5001F01D3042087
:100A300070E0B989B8FBF1F201FB128100295DD1A8
:100A4000401CF061B169002905D14046400939894F
:100A5000884253D314E0B889B8FBF0F07A89521E6B
:100A600010424BD13046FFF7BAFD0546012D15D98E
:100A700015F1010F37D0F869854239D3002C03D125
:100A80000020F061042045E0B1693046FFF7F9FE2F
:100A9000050001D107203DE0012D01D1022039E000
:100AA00015F1010F1FD03846FFF701FD00281AD1BC
:100AB000BA89002107F13800FFF72DFC00242946F0
:100AC0003846FFF77FFD786303E0641C786B401CB9
:100AD00078637889844208D20120F8703846FFF79D
:100AE000E6FC0028F1D0012014E0786B041B7C6345
:100AF000B56129463846FFF765FDF061C6F81480F8
:100B0000B889B8FBF0F100FB118807F138004044C8
:100B100030620020BDE8F081F8B504460D46266835
:100B20000021FFF71FFF010017D10027E1693046C0
:100B3000FFF7E6FC010010D1216A0978E52901D010
:100B4000002903D17F1CAF4201D106E0002701211B
:100B50002046FFF75DFF0100E8D00146042900D1DF
:100B60000720F2BD70B504460D4605F11A00FFF7E7
:100B7000ADFB06462078032805D105F11400FFF7E8
:100B8000A5FB46EA0046304670BD70B504460D46EA
:100B90001646314689B205F11A00FFF7A7FB207807
:100BA000032807D1360C314605F11400BDE870402A
:100BB000FFF79CBB70BD00002DE9F84304460D46CD
:100BC00005F11A00FFF782FB002836D1287800F0E3
:100BD0003F00401E0D2646434FF0010900271DE04F
:100BE0004FF6FF70804528D117E000BF31A0C05DEF
:100BF0002844FFF76BFB804648460028F0D0402E83
:100C00001BD2404600F0D2FF814634F8160000F0B7
:100C1000CDFF761C814510D1C1467F1C0D2FE4D33A
:100C20002878400606D5B9F1000F03D034F8160035
:100C3000002802D10120BDE8F2830020FBE700007C
:100C40002DE9F04706460C46154663730F20E07207
:100C500000202073014604F11A00FFF747FB2846E5
:100C6000401E0D2747434FF00008C1464FF6FF7A5C
:100C700040465146884202D036F817807F1C4146D4
:100C80000CA010F809002044FFF730FB4046002874
:100C900000D1D04609F10109B9F10D0FE8D3D045D3
:100CA00003D036F81700002801D145F04005257023
:100CB000BDE8F08701030507090E10121416181C71
:100CC0001E0000007CB5054616461C460B22FFF7A9
:100CD00019FB062C16D33088002813D036F8020BE7
:100CE00000211029F7D22246044604F0010404EB47
:100CF00042044008E20303D584F4883484F02104DC
:100D0000491CEEE7072004F00F02303211463A2961
:100D100000DBD21D69460A54401E2409F3D17E220D
:100D20000A54002200E0521C824202D2AB5C202B0B
:100D3000F9D113465A1C072802D80C5C401C00E06D
:100D40002024EC54072AF4D973BD024600200B215D
:100D50000346DBB2C00110EB530012F8013BC01890
:100D6000491EF5D1C0B270472DE9F0470446256809
:100D70000021FFF7F7FD01005FD1FF26B146B04625
:100D80004FF0FF372763E1692846FFF7B9FB82463A
:100D9000002851D1216A0878002829D0C97A01F0A9
:100DA0003F01A171E5283ED00A0701D50F293AD1AC
:100DB0000F2922D194F82F10490636D4410607D5C1
:100DC000216A91F80D9000F0BF00804661692163AF
:100DD0004146C9B288420ED1216A487B81450AD179
:100DE0002869FFF7E9FE002805D0A8F101081CE0FA
:100DF0004FF0040A20E0B04617E05FFA88F8B8F137
:100E0000000F04D1206AFFF7A0FF814514D094F8A9
:100E10002F00C00707D40B2204F12401206AFFF73A
:100E20007FFA002808D0B046276300212046FFF74C
:100E3000EFFD82460028A6D05046BDE8F0872DE998
:100E4000FE4305462E6895F82F0010F0A00F01D044
:100E500006208DE0002400E0641C306930F81400A6
:100E60000028F9D10C2205F124016846FFF74AFA5F
:100E7000E84698F80B00C00723D5402085F82F00DE
:100E80004FF0010901E009F10109B9F1640F0BD23A
:100E90004B463269694605F12400FFF713FF2846E7
:100EA000FFF762FF0700EED0B9F1640F01D1072010
:100EB0005EE03846C0B2042858D198F80B0085F897
:100EC0002F0098F80B00800705D50C340D20B4FBDB
:100ED000F0F4641C00E0012421462846FFF71CFEC4
:100EE000070028D1641E26D06969A4EB440001EBF9
:100EF00040112846FFF736FD07001CD105F12400FC
:100F0000FFF723FF0746E9693046FFF7F9FA0100CA
:100F100010D13B462246D2B2296A3069FFF790FED3
:100F20000120F07000212846FFF772FD010001D179
:100F3000641EE8D10746380018D1E9693046FFF74A
:100F4000DFFA070012D120220021286AFFF7E3F917
:100F50000B2205F12401286AFFF7D4F995F82F0038
:100F600000F01800296A08730120F0703846C0B2FA
:100F7000BDE8FE832DE9F84F80460F46D7F8009074
:100F8000D8F8000005690026B24611E0402E44D290
:100F9000012100F0E5FD04003FD0802C05DA214658
:100FA0006DA0FFF7CAF9002837D125F81640761C46
:100FB00019F80A000AF1010A20280CDB2F2801D0B9
:100FC0005C28E3D119F80A102F2901D05C2902D13D
:100FD0000AF1010AF6E709EB0A013960202802DA72
:100FE0000427344602E00027FBE7641E002C06D0ED
:100FF000A81E30F814002028F7D02E28F5D00020A5
:1010000025F81400002C08D008F124080B22202118
:101010004046FFF780F9002002E006205DE0401C1A
:1010200035F810102029FAD02E29F8D0002803D046
:1010300047F0030700E0641E002C04D0A91E31F81D
:1010400014102E29F7D14FF00009CA464FF0080BB3
:1010500000952546064601E047F00307009830F862
:101060001640761C002C0ED0202CF5D02E2C01D151
:10107000AE42F1D1DA4501D2AE423ED1BBF10B0F07
:101080002DD147F0030798F80000E52802D105208C
:1010900088F80000BBF1080F01D14FEA89095FFA17
:1010A00089F909F00C000C2803D009F0030003288B
:1010B00001D147F00207B8070CD409F0030001285A
:1010C00001D147F0100709F00C09B9F1040F01D163
:1010D00047F0080788F80B700020BDE8F28FAE4299
:1010E00001D047F00307B542CDD32E464FF0080A92
:1010F0004FF00B0B4FEA8909B0E7802C0CDB002185
:10110000204600F02DFD040004D0DFF8F004204458
:1011100010F8804C47F00207002C06D04FEA04017B
:1011200010A0FFF70AF9002803D05F2447F0030757
:101130000DE0A4F141001A2802D249F0020906E0AC
:10114000A4F161001A2802D249F00109203C08F8F4
:101150000A400AF1010A81E7222A3A3C3E3F7C7F9D
:10116000000000002B2C3B3D5B5D000032B50446C7
:10117000256802E00098401C0090009800782F2815
:10118000F8D05C28F6D00020A060009800782028D5
:1011900019D2802084F82F0000212046FFF7E2FBBF
:1011A00032BD490723D4A079C0061FD56069A9893B
:1011B000B0FBF1F201FB1200284400F1380128468F
:1011C000FFF7D0FCA06069462046FFF7D3FE010080
:1011D0000DD12046FFF7C8FD94F82F100200E0D093
:1011E000042A04D1490702D4052032BD052032BDAE
:1011F00001464FF0FF300A68002A00D1704710B452
:1012000000E0521C13781C46202C01D33A2BF8D155
:101210003A2B0DD10C6814F8013B303B0A2B08D255
:10122000944206D1002B04D10020521C0A6000E039
:10123000002010BC704710B504460020E0704FF04D
:10124000FF3060632046FFF75BF9002801D00420DF
:1012500010BD04F23620FFF739F84AF655218842CE
:1012600001D0032010BD04F138000178E92904D031
:10127000EB2916D18078902813D104F16E00FFF786
:101280002AF820F07F40DFF87813884207D004F175
:101290008A00FFF720F8DFF86C13884201D10020A4
:1012A00010BD022010BD2DE9FF41884614460021E3
:1012B000C8F80010FFF79CFF060001D50B204FE196
:1012C000DFF84473381D50F82650002D01D10C2052
:1012D00046E1C8F8005004F0FE04287800280AD03F
:1012E000687800F0FFFBC10705D4002C01D040074F
:1012F0000FD4002034E1002028706E70687800F070
:10130000FAFBC10701D503202AE1002C03D04007D6
:1013100001D50A2024E105F10C020221687800F0D1
:1013200010FC002838D1A8890146A1F5007140F6CB
:101330000162914230D2411E08422DD10024214643
:101340002846FFF778FF022824D110E000200AE0A9
:1013500005EB041000F5FB7108790028F6D001F1C7
:101360000800FEF7B8FF694641F82400641C042C0D
:10137000EED30026684650F82640002C04D02146C3
:101380002846FFF758FF00E00320012802DD761C05
:10139000042EEFD3042801D10120E1E0012800F35D
:1013A000988005F14300FEF791FFA989884240F03B
:1013B000908005F14E00FEF789FF060004D105F18B
:1013C0005C00FEF788FF06462E6205F14500C178F5
:1013D000A970012901D002297BD14E430078688190
:1013E000010076D0411E084273D105F14900FEF795
:1013F0006DFF2881A989490990FBF1F201FB1200D8
:10140000002866D105F14B00FEF760FF8046B8F179
:10141000000F04D105F15800FEF75DFF804605F18D
:101420004600FEF753FF002853D031182A89AB89B4
:101430005B0992FBF3F2521890454AD3A8EB0208DD
:101440006989B8FBF1F1002943D04FF003084FF64A
:10145000F673994201D24FF0020840F6F6739942B2
:1014600001D24FF00108891CE9616C620019A86281
:1014700012192A63B8F1030F10D105F16200FEF7CB
:1014800025FF002825D12889002822D105F16400F4
:10149000FEF721FFE862E869800011E02889002852
:1014A00017D0A86A3618EE62E869B8F1020F01D1C8
:1014B000400005E000EB400100F0010000EB5100AE
:1014C000A9890A46521E1018B0FBF1F0296A814220
:1014D00001D20D2044E04FF0FF30A8616861802008
:1014E0002871B8F1030F2ED105F16800FEF7EEFE6A
:1014F000012828D1641C21462846FFF701F800285E
:1015000021D10020287105F23620FEF7DFFE4AF6D1
:101510005521884217D105F13800FEF7DCFE3B4922
:10152000884210D105F50770FEF7D5FE384988428C
:1015300009D105F50870FEF7CEFEA86105F5097022
:10154000FEF7C9FE686185F800803888401C388045
:10155000E88007F1080028612846FEF799FF00207F
:1015600004B0BDE8F08170B504460D460926002C94
:101570000FD0206800280CD00178002909D0A1885C
:10158000C288914205D1407800F0ACFAC00700D47F
:101590000026300001D1206800E00020286030469D
:1015A00070BD73B582B01546084600906846FFF7D7
:1015B0001FFE002801D50B201EE0134901EB800619
:1015C0007468002C04D02046FEF762FF00202070D3
:1015D0000298002802D000200299087002987060DA
:1015E0000298002801D0012D01D0002004E0002243
:1015F00002A903A8FFF757FE04B070BD5C480108BC
:1016000046415400464154330C600020525261411F
:10161000727241612DE9F3418EB004461746002CE9
:1016200001D1092006E107F03F073A4669460FA8B5
:10163000FFF739FE060040F0F880009801900F99FE
:1016400001A8FFF793FD06000FD19DF833000006B7
:1016500001D5062609E007F0FE00411E8941C94375
:10166000C90F01A8FEF772FE064617F01C0F57D0EF
:1016700030000ED0042809D1FEF799FE002804D0CE
:1016800001A8FFF7DCFB064600E0122647F008073A
:1016900009E09DF80A0010F0110F01D0072602E0C2
:1016A000780700D50826300047D1380745D500F027
:1016B000C7FA0546294609980E30FEF71BFE294653
:1016C00009981630FEF716FE20200999C872DDF839
:1016D000248041460098FFF745FA0546002241461E
:1016E0000098FFF752FA002109981C30FEF702FE1D
:1016F00001200099C870002D1FD00098D0F83480C8
:101700000022294601A8FFF781F8060015D14146BD
:101710000098FEF7F5FE06466D1E009845610CE048
:1017200030000AD19DF80A00C10601D5042604E064
:10173000B90702D5C00700D50726300015D13807F4
:1017400001D547F040070098406B60620998A0629D
:1017500007F0FE00411E8941C943C90F01A8FEF7E9
:1017600036FE2061002800D1022630005DD10999A3
:101770000098FFF7F7F9A06009981C30FEF7ABFD61
:10178000E0600020E062009820600098C088A0809F
:101790002775002060752062A0614FF480520146D9
:1017A00004F13000FEF7B7FDB8063ED5E06800282A
:1017B0003BD0A0610098408900998F894743A16878
:1017C000E5680BE02046FEF70AFF0146022900D239
:1017D000022611F1010F00D10126ED1B300001D1CD
:1017E000AF42EFD3E16130001FD100988089B5FB93
:1017F000F0F200FB1250002817D00098FEF7E2FE2E
:10180000002801D1022610E000998989B5FBF1F189
:10181000081820620123024604F130010098407844
:1018200000F079F9002800D00126300001D0002016
:101830002060304610B0BDE8F0812DE9FC478046BD
:101840008A46154699460020C9F800006946404678
:10185000FFF789FE010040F0C18098F815000100F3
:1018600040F0BC8098F81400C00701D40720B5E010
:10187000D8F80C40D8F81800241AAC423AD92C46B3
:1018800038E0AE1900988089B4FBF0F7002F66D0DD
:10189000009840897919884201D2451B2F463B4662
:1018A000324651460098407800F035F9002840F063
:1018B000908098F8140000060DD5D8F82000861BFB
:1018C000BE4208D20098828908F1300156430AEBE3
:1018D0000600FEF717FD009880894743BA44D8F800
:1018E00018003818C8F81800D9F800003818C9F8D6
:1018F0000000E41B002C70D0D8F8181000988089E4
:10190000B1FBF0F500FB151000284BD10098408981
:10191000401E054018D1002902D1D8F808000CE07B
:10192000D8F82C00002803D04046FFF705F804E063
:10193000D8F81C104046FEF752FE02280BD310F1D7
:10194000010F46D0C8F81C00D8F81C100098FEF70C
:1019500039FE060095D1022088F815003EE0D8F83F
:101960002020B2421CD098F8140000060ED50123A6
:1019700008F130010098407800F0D8F8002828D10C
:1019800098F8140000F07F0088F814000123324614
:1019900008F130010098407800F0BDF8002818D117
:1019A000C8F82060D8F81800034600998A89B3FB6C
:1019B000F2F15143D31ACB1827469C4200D91F4657
:1019C0003A4608F13003401A19185046FEF79AFCBF
:1019D00084E7012088F8150000E00020BDE8F687C4
:1019E0007CB504466946FFF7BEFD010040D1217D6C
:1019F0004A063DD508060FD50123226A04F13001BD
:101A00000098407800F092F8002801D0012076BDBF
:101A1000207D00F07F00207500F012F90546616A14
:101A20000098FEF76DFD010022D1A66AF07A40F021
:101A30002000F072A26831462068FFF7A6F8E1683E
:101A400006F11C00FEF756FC294606F11600FEF7CB
:101A500051FC002106F11200FEF748FC012000991C
:101A6000C8700098FEF767FD217D01F0BF01217568
:101A700076BD1CB50446FFF7B3FF01000CD16946E3
:101A80002046FFF770FD010006D12069FEF7E5FC56
:101A9000010001D10021216016BD2DE9FC41054660
:101AA0000E4617460024A846701E844211DA01AB88
:101AB000012269463846FFF7C0FE0198012808D187
:101AC0009DF800000D28EFD008F8010B641C0A28CF
:101AD000EAD1002088F80000002C00D105462846F5
:101AE000BDE8F68101461D4A5018007A02EB8101DB
:101AF00049684968084702460020184B995C00294C
:101B000008D1012098549818007A03EB82014968A3
:101B100009680847704738B50446104D2819007AFF
:101B200005EB84046468A468A04732BD38B5044658
:101B30000A4D2819007A05EB84046468E468A0471C
:101B400032BD18B40346054CE018007A04EB830359
:101B50005B681B6901B010BC18470000C06500201D
:101B60000246802A00DA704710B400290BD0B2F583
:101B7000807F01DB002017E02B4800EB4200A0F53E
:101B80008070008810E000210346274C00E0491CCB
:101B90000A4692B2802A03DA34F812209342F6D130
:101BA0000846803000F0FF0010BC704770B4034658
:101BB0001E4CB3F5805F06DB04F5FA7403E00029E0
:101BC00001D104EB45042288002A2AD0934228DB65
:101BD0006588241D2946091205F0FF05AE18B34299
:101BE000EDDA08291DD8DFE801F005090E101214FE
:101BF00016181A009B1A34F8130012E0821A02F029
:101C00000102801A0DE010380BE0203809E030386E
:101C100007E01A3805E0083003E0503801E0A0F58D
:101C2000E35080B270BC704704420108A82F01083D
:101C300010B5044C211D044800F026F8207010BD9A
:101C400000207047E4650020344D010830B403469D
:101C500001200E4D6C7A002C14D100206C7A28558E
:101C6000687A05EB80004360687A28440272687ADB
:101C7000421C6A72303008703A2048702F208870F9
:101C80000020C87030BC70470022DFE7C06500202C
:101C9000F8B5044601F0FAFB0746002C01D10120FB
:101CA000F2BD2068DFF8D463B0423BD0DFF8D01338
:101CB000884237D0DFF8CC13884233D0DFF8C8131E
:101CC00088422FD0DFF8C41388422BD0DFF8C0132E
:101CD000884227D0DFF8BC13884223D0DFF8B8133E
:101CE00088421FD0DFF8B41388421BD0DFF8B0134E
:101CF000884217D0DFF8AC13884213D0DFF8A8135E
:101D000088420FD0DFF8A41388420BD0DFF8A0136D
:101D1000884207D0DFF89C13884203D0DFF898137D
:101D2000884201D1012100E0002104F1340500299D
:101D300000F0178102206870002028702068B042EF
:101D40003BD0DFF83C13884237D0DFF838138842A5
:101D500033D0DFF8341388422FD0DFF830138842B5
:101D60002BD0DFF82C13884227D0DFF828138842C5
:101D700023D0DFF8241388421FD0DFF820138842D5
:101D80001BD0DFF81C13884217D0DFF818138842E5
:101D900013D0DFF8141388420FD0DFF810138842F5
:101DA0000BD0DFF80C13884207D0DFF80813884205
:101DB00003D0DFF80413884214D1016849084900B0
:101DC000016021680868C00711D501F05FFBC01BE6
:101DD0000628F6D304F1340020210162032141706A
:101DE0000120F2BD0168490849000160E9E70A687D
:101DF000DFF8C8020240A0680243E068024320699D
:101E0000024360690243A0690243E0690243206A19
:101E10000243606A042804D1E06A02431046226B40
:101E200002436068A0F12903062B10D3A0F13F0301
:101E3000042B0CD3A0F14703022B08D3A0F14F03CE
:101E4000042B04D3743804288041C00F00E0012023
:101E5000002801D042F480120A6020684769606A55
:101E6000FF0850EAC70704280ED1A06A0743E06ABA
:101E7000002809D0204601F009FA002804D04020AB
:101E8000286201206870F2BD20684761204601F099
:101E9000ACF93F2195F8282002F01F0291408160A3
:101EA0002068B0425BD0DFF8D811884257D0DFF805
:101EB000D411884253D0DFF8D01188424FD0DFF8D8
:101EC000CC1188424BD0DFF8C811884247D0DFF8E8
:101ED000C411884243D0DFF8C01188423FD0DFF8F8
:101EE000BC1188423BD0DFF8B811884237D0DFF808
:101EF000B411884233D0DFF8B01188422FD0DFF818
:101F0000AC1188422BD0DFF8A811884227D0DFF827
:101F1000A411884223D0DFF8A01188421FD0DFF837
:101F2000B01488421BD0DFF8AC14884217D0DFF819
:101F3000A814884213D0DFF8A41488420FD0DFF829
:101F4000A01488420BD0DFF89C14884207D0DFF839
:101F50009814884203D0DFF89414884263D101209A
:101F600062E0DFF86C1488421BD0DFF86814884206
:101F700017D0DFF86414884213D0DFF86014884269
:101F80000FD0DFF85C1488420BD0DFF85814884279
:101F900007D0DFF85414884203D0DFF85014884289
:101FA00001D1012000E00020002836D00220687016
:101FB00000202870226811686FF31011A068402873
:101FC00001D1102005E0802802D14FF4804000E0CC
:101FD00000200143E3682069034360690343A0696B
:101FE0000343E069034341EAD301206A41EA101147
:101FF00011602168DFF8F80341181420B1FBF0F0FC
:102000008000A862204601F0F0F8012195F8282010
:1020100002F01F029140416042E740202862032005
:1020200068700120F2BD0020002820D0204601F079
:1020300066F9A068802801D1002060602079E96AF3
:102040000860686B296B4860606800280BD009281D
:1020500009D2204601F09EF90020A96B0860286C87
:10206000E96B486003E00020A863E863286400206F
:102070002862012068700020F2BD000010000240BC
:102080002800024040000240580002407000024018
:1020900088000240A0000240B80002401004024044
:1020A00028040240400402405804024070040240E8
:1020B00088040240A0040240B80402403F8010FEA1
:1020C000F8B504460025002C01D10120F2BD04F131
:1020D00034063078012801D10220F2BD0120307091
:1020E0007078012840F06C810220707028463062C0
:1020F0002068DFF80073B8423BD0DFF8FCC26045CF
:1021000037D0DFF8F8C2604533D0DFF8F4C260455D
:102110002FD0DFF8F0C260452BD0DFF8ECC260456D
:1021200027D0DFF8E8C2604523D0DFF8E4C260457D
:102130001FD0DFF8E0C260451BD0DFF8DCC260458D
:1021400017D0DFF8D8C2604513D0DFF8D4C260459D
:102150000FD0DFF8D0C260450BD0DFF8CCC26045AD
:1021600007D0DFF8C8C2604503D0DFF894C56045EA
:1021700008D1D0F800C04FEA5C0C4FEA4C0CC0F814
:1021800000C007E0D0F800C04FEA5C0C4FEA4C0CEE
:10219000C0F800C0204600F029FF2068B8423BD0BC
:1021A000DFF85412884237D0DFF85012884233D01B
:1021B000DFF84C1288422FD0DFF8481288422BD02B
:1021C000DFF84412884227D0DFF84012884223D03B
:1021D000DFF83C1288421FD0DFF8381288421BD04B
:1021E000DFF83412884217D0DFF83012884213D05B
:1021F000DFF82C1288420FD0DFF8281288420BD06B
:10220000DFF82412884207D0DFF82012884203D07A
:10221000DFF8EC14884201D1012100E029460029B1
:102220000DD00B21026861F344020260F0680028BF
:1022300012D02068016841F0080101600CE005211E
:10224000026861F343020260F068002804D020684D
:10225000016841F0040101602068B84253D0DFF802
:10226000981188424FD0DFF8941188424BD0DFF8A4
:102270009011884247D0DFF88C11884243D0DFF8B4
:10228000881188423FD0DFF8841188423BD0DFF8C4
:102290008011884237D0DFF87C11884233D0DFF8D4
:1022A000781188422FD0DFF8741188422BD0DFF8E4
:1022B0007011884227D0DFF86C11884223D0DFF8F4
:1022C000681188421FD0DFF8641188421BD0DFF804
:1022D0003014884217D03E49884214D03D49884284
:1022E00011D03D4988420ED03C4988420BD03C4930
:1022F000884208D03B49884205D03B49884202D0F9
:102300003A49884201D1012000E0284600280ED039
:10231000F06A0168C90303D5016841F48071016066
:10232000B06B002803D0016841F48071016020681F
:10233000B8423BD0DFF8C010884237D0DFF8BC107D
:10234000884233D0DFF8B81088422FD0DFF8B410BD
:1023500088422BD0DFF8B010884227D0DFF8AC10CD
:10236000884223D0DFF8A81088421FD0DFF8A410DD
:1023700088421BD0DFF8A010884217D0DFF89C10ED
:10238000884213D0DFF8981088420FD0DFF89410FD
:1023900088420BD0DFF89010884207D0DFF88C100D
:1023A000884203D0DFF85813884204D1016841F015
:1023B000010101600AE0016841F00101016005E0EE
:1023C0004FF4006030622846307001252846F2BD87
:1023D000085402581C5402583054025844540258AD
:1023E000585402586C54025880540258945402585D
:1023F000F8ABFDA710000240280002404000024058
:10240000580002407000024088000240A0000240D4
:10241000B800024010040240280402404004024078
:10242000580402407004024088040240A0040240A4
:1024300010B5002801D1012010BD00F134025178FF
:10244000022903D080201062012010BD0168DFF84E
:10245000D43299423AD0DFF8D042A14236D0DFF8E8
:10246000CC42A14232D0DFF8C842A1422ED0DFF8E0
:10247000C442A1422AD0DFF8C042A14226D0DFF8F0
:10248000BC42A14222D0DFF8B842A1421ED0DFF800
:10249000B442A1421AD0DFF8B042A14216D0DFF810
:1024A000AC42A14212D0DFF8A842A1420ED0DFF820
:1024B000A442A1420AD0DFF8A042A14206D0DFF830
:1024C0009C42A14202D08E4CA14201D1012400E0E5
:1024D0000024002C49D004215170006898423AD061
:1024E000DFF84412884236D0DFF84012884232D0FA
:1024F000DFF83C1288422ED0DFF8381288422AD00A
:10250000DFF83412884226D0DFF83012884222D019
:10251000DFF82C1288421ED0DFF8281288421AD029
:10252000DFF82412884216D0DFF82012884212D039
:10253000DFF81C1288420ED0DFF8181288420AD049
:10254000DFF81412884206D0DFF81012884202D059
:102550006B49884204D10168490849000160CDE017
:102560000168490849000160C8E00C6824F00E04C5
:102570000C60016899423AD0DFF8AC41A14236D0F4
:10258000DFF8A841A14232D0DFF8A441A1422ED009
:10259000DFF8A041A1422AD0DFF89C41A14226D019
:1025A000DFF89841A14222D0DFF89441A1421ED029
:1025B000DFF89041A1421AD0DFF88C41A14216D039
:1025C000DFF88841A14212D0DFF88441A1420ED049
:1025D000DFF88041A1420AD0DFF87C41A14206D059
:1025E000DFF87841A14202D0454CA14204D10C68E9
:1025F000640864000C6003E00C68640864000C600C
:102600000168994253D0DFF8203199424FD0DFF86A
:102610001C3199424BD0DFF81831994247D0DFF88E
:102620001431994243D0DFF8103199423FD0DFF89E
:102630000C3199423BD0DFF80831994237D0DFF8AE
:102640000431994233D0DFF8003199422FD0DFF8BE
:10265000FC3099422BD0DFF8F830994227D0DFF8D0
:10266000F430994223D0DFF8F03099421FD0DFF8E0
:10267000EC3099421BD0224B994218D0214B994201
:1026800015D0214B994212D0204B99420FD0204BAC
:1026900099420CD01F4B994209D01F4B994206D04A
:1026A0001E4B994203D0DFF87830994201D10121C5
:1026B00000E00021002919D0D16A0B6823F480734F
:1026C0000B60012192F8283003F01F039940536AF0
:1026D0005960516B136B5960916B002906D00B68E0
:1026E00023F480730B60116CD36B5960012151701E
:1026F00000211170D169002900D08847002010BD49
:10270000B8040240085402581C540258305402586D
:1027100044540258585402586C5402588054025879
:102720009454025810000240280002404000024029
:10273000580002407000024088000240A0000240A1
:10274000B800024010040240280402404004024045
:10275000580402407004024088040240A004024071
:102760002DE9F843044600200090DFF8380800689F
:102770004FF41651B0FBF1F604F13407786A0546C0
:10278000D5F8008002682168DFF81C9849453BD0E5
:10279000DFF81838994237D0DFF81438994233D02F
:1027A000DFF8103899422FD0DFF80C3899422BD03F
:1027B000DFF80838994227D0DFF80438994223D04F
:1027C000DFF8003899421FD0DFF8FC3799421BD060
:1027D000DFF8F837994217D0DFF8F437994213D071
:1027E000DFF8F03799420FD0DFF8EC3799420BD081
:1027F000DFF8E837994207D0DFF8E437994203D091
:10280000DFF8E037994201D1012300E00023002BDB
:1028100000F08782082297F8280000F01F0002FAD3
:1028200000F018EA000F54D049453BD0DFF87C0790
:10283000814237D0DFF87807814233D0DFF8740760
:1028400081422FD0DFF8700781422BD0DFF86C0770
:10285000814227D0DFF86807814223D0DFF8640780
:1028600081421FD0DFF8600781421BD0DFF85C0790
:10287000814217D0DFF85807814213D0DFF85407A0
:1028800081420FD0DFF8500781420BD0DFF84C07B0
:10289000814207D0DFF84807814203D0DFF84407C0
:1028A000814203D1086800F0040002E0086800F0EB
:1028B000080000280DD0086820F00400086097F890
:1028C000280000F01F008240AA60386A40F0010032
:1028D000386297F8281001F01F014046C840C00731
:1028E0004ED5206848453BD0DFF8C026904237D00F
:1028F000DFF8BC26904233D0DFF8B82690422FD0C4
:10290000DFF8B42690422BD0DFF8B026904227D0D3
:10291000DFF8AC26904223D0DFF8A82690421FD0E3
:10292000DFF8A42690421BD0DFF8A026904217D0F3
:10293000DFF89C26904213D0DFF8982690420FD003
:10294000DFF8942690420BD0DFF89026904207D013
:10295000DFF88C26904203D0DFF88826904203D11E
:10296000406900F0800001E000680020002807D0E6
:10297000012000FA01F1A960386A40F002003862D3
:10298000042197F8280000F01F00814018EA010F89
:102990004BD0206848453BD0DFF81026904237D016
:1029A000DFF80C26904233D0DFF8082690422FD073
:1029B000DFF8042690422BD0DFF80026904227D083
:1029C000DFF8FC25904223D0DFF8F82590421FD095
:1029D000DFF8F42590421BD0DFF8F025904217D0A5
:1029E000DFF8EC25904213D0DFF8E82590420FD0B5
:1029F000DFF8E42590420BD0DFF8E025904207D0C5
:102A0000DFF8DC25904203D0DFF8D825904203D1CF
:102A1000006800F0020001E000680020002804D0F7
:102A2000A960386A40F004003862102197F8280045
:102A300000F01F00814018EA010F67D02068484568
:102A40003BD0DFF86825904237D0DFF8642590420C
:102A500033D0DFF8602590422FD0DFF85C2590421C
:102A60002BD0DFF85825904227D0DFF8542590422C
:102A700023D0DFF8502590421FD0DFF84C2590423C
:102A80001BD0DFF84825904217D0DFF8442590424C
:102A900013D0DFF8402590420FD0DFF83C2590425C
:102AA0000BD0DFF83825904207D0DFF8342590426C
:102AB00003D0DFF83025904203D1006800F0080011
:102AC00002E0006800F0040000281FD0A960206820
:102AD000016849030ED50068000305D4F968002990
:102AE00014D02046884711E0796900290ED020468D
:102AF00088470BE00168C90503D4016821F008018B
:102B00000160F968002901D020468847202197F804
:102B1000280000F01F00814018EA010F00F09580A6
:102B2000206848453BD0DFF88424904237D0DFF856
:102B30008024904233D0DFF87C2490422FD0DFF8FD
:102B4000782490422BD0DFF87424904227D0DFF80D
:102B50007024904223D0DFF86C2490421FD0DFF81D
:102B6000682490421BD0DFF86424904217D0DFF82D
:102B70006024904213D0DFF85C2490420FD0DFF83D
:102B8000582490420BD0DFF85424904207D0DFF84D
:102B90005024904203D0DFF84C24904203D10068C7
:102BA00000F0100002E0006800F0020000284CD0A5
:102BB000A960206879780429016825D121F01601DF
:102BC00001602068416921F080014161F8680028B6
:102BD00002D17869002804D02068016821F008013A
:102BE00001603F2097F8281001F01F018840A8607D
:102BF0000120787000203870F969002900F0CF8139
:102C00002046BDE8F443084749030ED50068000399
:102C100005D43969002918D02046884715E0B968DD
:102C2000002912D0204688470FE00168C90507D463
:102C3000016821F0100101600120787000203870D7
:102C4000B968002901D020468847386A002800F07A
:102C5000A681386AC0075CD5042078702068484592
:102C60003BD0DFF84813884237D0DFF8441388425E
:102C700033D0DFF8401388422FD0DFF83C1388426E
:102C80002BD0DFF83813884227D0DFF8341388427E
:102C900023D0DFF8301388421FD0DFF82C1388428E
:102CA0001BD0DFF82813884217D0DFF8241388429E
:102CB00013D0DFF8201388420FD0DFF81C138842AE
:102CC0000BD0DFF81813884207D0DFF814138842BE
:102CD00003D0DFF81013884212D101684908490077
:102CE00001600099491C009120688E4202D301685E
:102CF000C907F6D40068C00707D50320787006E03E
:102D00000168490849000160EBE701207870002064
:102D10003870B969002900F042812046BDE8F443CB
:102D20000847DFF8DC3699421BD0DFF8D8369942E5
:102D300017D0DFF8D436994213D0DFF8D036994255
:102D40000FD0DFF8CC3699420BD0DFF8C836994265
:102D500007D0DFF8C436994203D0DFF8C036994275
:102D600001D1012300E00023002B00F018810B6843
:102D700097F8285005F01F050426AE4032425AD07D
:102D80005FEA437C57D54660180411D5D80307D4B1
:102D90007969002900F003812046BDE8F443084723
:102DA000F968002900F0FB802046BDE8F44308479D
:102DB000980638D4206848452CD07C49884229D0D0
:102DC0007B49884226D07B49884223D07A49884271
:102DD00020D07A4988421DD0794988421AD0794951
:102DE000884217D07849884214D07849884211D057
:102DF000774988420ED0774988420BD0764988427D
:102E000008D07649884205D07549884202D0754974
:102E1000884204D1016821F00801016003E00168E3
:102E200021F004010160F968002900F0B880204613
:102E3000BDE8F44308470226AE4032425DD05FEA67
:102E4000837C5AD54660180411D5D80307D4396954
:102E5000002900F0A4802046BDE8F4430847B96883
:102E6000002900F09C802046BDE8F44308479806FE
:102E70003CD4206848452CD04C49884229D04C4944
:102E8000884226D04B49884223D04B49884220D0E3
:102E90004A4988421DD04A4988421AD04949884245
:102EA00017D04949884214D04849884211D048492E
:102EB00088420ED0474988420BD04749884208D003
:102EC0004649884205D04649884202D04549884251
:102ED00004D1016821F01401016003E0016821F0D0
:102EE0000A0101600120787000203870B96800295B
:102EF00055D02046BDE8F4430847082606FA05F5F4
:102F00002A424CD01A074AD549452CD0274A91422B
:102F100029D0274A914226D0264A914223D0264AD8
:102F2000914220D0254A91421DD0254A91421AD083
:102F3000244A914217D0244A914214D0234A914204
:102F400011D0234A91420ED0224A91420BD0224AFC
:102F5000914208D0214A914205D0214A914202D0A3
:102F6000204A914204D10A6822F01C020A6003E060
:102F70000A6822F00E020A60012197F8282002F068
:102F80001F02914041600120386278700020387043
:102F9000B969002903D02046BDE8F4430847BDE8DD
:102FA000F1830000A401002010000240280002402C
:102FB0004000024058000240700002408800024079
:102FC000A0000240B8000240100402402804024061
:102FD0004004024058040240700402408804024049
:102FE000A0040240B8040240406D7047F0B4856D03
:102FF0002E460468DFF82874BC425BD0DFF824C496
:10300000644557D0DFF820C4644553D0DFF81CC4B2
:1030100064454FD0DFF818C464454BD0DFF814C4C2
:10302000644547D0DFF810C4644543D0DFF80CC4D2
:1030300064453FD0DFF808C464453BD0DFF804C4E2
:10304000644537D0DFF800C4644533D0DFF8FCC3F3
:1030500064452FD0DFF8F8C364452BD0DFF8F4C304
:10306000644527D0DFF8F0C3644523D0DFF8ECC314
:1030700064451FD0DFF888C364451BD0DFF884C3E4
:10308000644517D0DFF880C3644513D0DFF87CC3F4
:1030900064450FD0DFF878C364450BD0DFF874C304
:1030A000644507D0DFF870C3644503D0DFF86CC314
:1030B000644501D1012400E00024002C0CD0846E72
:1030C000D0F864C0CCF80440C46E002C04D0446F27
:1030D000D0F870C0CCF804400468BC423BD0DFF8A4
:1030E0004473BC4237D0DFF84073BC4233D0DFF8C2
:1030F0003C73BC422FD0DFF83873BC422BD0DFF8D2
:103100003473BC4227D0DFF83073BC4223D0DFF8E1
:103110002C73BC421FD0DFF82873BC421BD0DFF8F1
:103120002473BC4217D0DFF82073BC4213D0DFF801
:103130001C73BC420FD0DFF81873BC420BD0DFF811
:103140001473BC4207D0DFF81073BC4203D0DFF821
:103150000C73BC4201D1012700E00027002F16D0DC
:103160003F2490F85C6006F01F06B440AC60046831
:10317000256825F480252560046863608368402BFA
:103180002ED0036899600068C260F0BC70479C4D07
:10319000AC4214D09B4DAC4211D09B4DAC420ED0F2
:1031A0009A4DAC420BD09A4DAC4208D0994DAC42EE
:1031B00005D0994DAC4202D0984DAC4201D10124CA
:1031C00000E00024002CE0D0012490F85C5005F0D1
:1031D0001F05AC407460046863608368402BD0D1E5
:1031E00003689A600068C160CFE701688C4A914229
:1031F0002CD08C4A914229D08B4A914226D08B4ABE
:10320000914223D08A4A914220D08A4A91421DD0CD
:10321000894A91421AD0894A914217D0884A9142EC
:1032200014D0884A914211D0874A91420ED0874AE1
:1032300091420BD0864A914208D0864A914205D0ED
:10324000854A914202D0854A914201D1012200E093
:103250000022002A15D001F0FF0110391822B1FB1D
:10326000F2F10FF2202201F00703D25CC26502687E
:10327000920A9202042902D3121D826504E082653B
:1032800002E0090A09028165806D7047014600204D
:103290008B6A8A69002A10D1002B03D0022B01D03F
:1032A00005D37047C96AC90128D501207047C96A8A
:1032B000B1F1C07F22D101207047B2F5005F12D179
:1032C000032B1BD8DFE803F002040209012070473A
:1032D000C96AC90112D501207047C96AB1F1C07F1E
:1032E0000CD101207047022B02D9DB1E02D070479F
:1032F00001207047C96AC90100D50120704710B488
:1033000001680B461A463E4CA14214D03D4CA142E6
:1033100011D03D4CA1420ED03C4CA1420BD03C4CB4
:10332000A14208D03B4CA14205D03B4CA14202D067
:103330003A4CA14201D1012100E0002103F0FF033A
:10334000002910D0083B1421B3FBF1F1444A02EBF1
:1033500081020266434A4266012201F01F0102FA1D
:1033600001F1816614E0103B1821B3FBF1F33E49F3
:103370008A18A92A00D208333C4901EB830101666F
:103380003B494166012103F01F0301FA03F3836601
:1033900010BC70470179002930D009292ED202686B
:1033A000174B9A4214D0174B9A4211D0164B9A429F
:1033B0000ED0164B9A420BD0154B9A4208D0154BA3
:1033C0009A4205D0144B9A4202D0144B9A4201D132
:1033D000012200E00022002A06D0264A12EB8103D7
:1033E000C366254A026705E0244A12EB8103C366DF
:1033F000234A02670122491E8A4042677047000043
:10340000085402581C54025830540258445402586C
:10341000585402586C54025880540258945402581C
:1034200010000240280002404000024058000240C4
:103430007000024088000240A0000240B800024034
:103440001004024028040240400402405804024094
:103450007004024088040240A0040240B804024004
:103460000058025880580258F0FBFDBF0008024087
:1034700080080240FC58025840590258FC0802409B
:103480004009024000061016000610160148406868
:10349000704700BF980100202DE9F0470546002441
:1034A0002646DFF85079D5E9000100012AD5686E7B
:1034B000002809D0B0F5801F0BD0B0F5001F0FD049
:1034C000B0F5401F14D012E0F86940F40030F86104
:1034D0000EE0022105F1080001F0BEF9044607E004
:1034E000022105F1280001F02FFA044600E0012432
:1034F000200006D1396C21F44011686E0143396413
:1035000000E02646D5E90001C00525D5A86D0428B0
:1035100017D8DFE800F003080F171700F86940F428
:103520000030F8610EE0002105F1080001F094F987
:10353000044607E0002105F1280001F005FA0446E1
:1035400000E00124200006D1396CC908A86D50EABA
:10355000C101396400E0264605F18408D5E900017F
:10356000400532D5D8F8200000280FD0B0F5001F54
:1035700011D0B0F5800F15D0B0F5C00F1AD0B0F54E
:10358000000F17D0B0F5200F14D012E0F86940F406
:103590000030F8610EE0002105F1080001F05CF94F
:1035A000044607E0002105F1280001F0CDF90446AA
:1035B00000E00124200007D1B96C21F46001D8F8A3
:1035C00020000143B96400E02646D5E9000100056A
:1035D00032D5D8F8240000280FD0B0F1807F11D068
:1035E000B0F1007F15D0B0F1407F1AD0B0F1806FFC
:1035F00017D0B0F1A06F14D012E0F86940F4003099
:10360000F8610EE0002105F1080001F025F90446FB
:1036100007E0002105F1280001F096F9044600E0DA
:103620000124200007D1B96C21F0E061D8F8240012
:103630000143B96400E02646D5E90001800120D5A8
:10364000E86C002813D0102804D0202807D0302898
:103650000DD00BE0F86940F40030F86107E002217A
:1036600005F1080001F0F8F8044600E0012420000C
:1036700006D1F96B21F03001E86C0143F96300E0F9
:103680002646D5E90001C0042DD5E86D00280CD0F0
:10369000B0F5805F0ED0B0F5005F12D0B0F5405F9E
:1036A00017D0B0F5804F14D012E0F86940F4003024
:1036B000F8610EE0002105F1080001F0CDF80446A4
:1036C00007E0002105F1280001F03EF9044600E082
:1036D0000124200006D1396C21F4E041E86D01435A
:1036E000396400E02646D5E9000180042BD5286E18
:1036F00000281ED0B0F5803F0CD0B0F5003F10D0B0
:10370000B0F5403F15D0B0F5802F12D0B0F5A02F06
:103710000FD00DE0012105F1080001F09DF80446ED
:1037200007E0012105F1280001F00EF9044600E050
:103730000124200006D1396C21F4E021286E0143D8
:10374000396400E02646D5E9000140042DD5D8F8BB
:10375000280000281ED0B0F1805F0CD0B0F1005FCF
:1037600010D0B0F1405F15D0B0F1804F12D0B0F161
:10377000A04F0FD00DE0012105F1080001F06CF819
:10378000044607E0012105F1280001F0DDF80446B8
:1037900000E00124200007D1B96C21F0E041D8F805
:1037A00028000143B96400E02646D5E90001000481
:1037B00020D5E86E002813D0B0F1805F03D0B0F1BF
:1037C000005F05D00BE0F86940F40030F86107E0D5
:1037D000012105F1080001F03FF8044600E0012452
:1037E000200006D1396C21F04051E86E0143396464
:1037F00000E02646D5E90001C0011DD5A86C0328CC
:103800000FD8DFE800F00F02070FF86940F400302E
:10381000F86107E0022105F1080001F01DF80446F7
:1038200000E00124200006D1F96B8908A86C50EA59
:103830008101F96300E02646D5E90001400260D528
:10384000DFF8B495D9F8000040F48070C9F80000A2
:10385000FFF71CFE8246D9F80000C00506D4FFF72A
:1038600015FEA0EB0A006528F5D30324200047D1FC
:10387000386E00F44070D8F82C1001F44071884282
:103880000BD0386E20F44070396E41F480313966C7
:10389000396E21F4803139663866D8F82C00B0F5DD
:1038A000807F0ED1FFF7F2FD8146386E800708D485
:1038B000FFF7ECFDA0EB090041F289318842F4D317
:1038C000032420001CD1D8F82C0000F44071B1F57D
:1038D000407F09D1396821F47C51DFF8202502EAC4
:1038E00010121143396003E0386820F47C503860CE
:1038F000386ED8F82C10C1F30B010843386600E08D
:1039000026462878C00726D5A86F002819D0082891
:1039100008D010280DD0182813D0202811D028281E
:103920000FD00DE0012105F1080000F095FF0446DD
:1039300007E0012105F1280001F006F8044600E047
:103940000124200006D1796C21F03801A86F0143D1
:10395000796400E026462878800720D5686F05281E
:1039600012D8DFE800F012030A121212012105F149
:10397000080000F071FF044607E0012105F128006E
:1039800000F0E2FF044600E00124200006D1796C3B
:10399000C908686F50EAC101796400E026462878BA
:1039A000400722D5D8F80C00052812D8DFE800F02F
:1039B00012030A121212012105F1080000F04CFF57
:1039C000044607E0012105F1280000F0BDFF044690
:1039D00000E00124200007D1B96CC908D8F80C0018
:1039E00050EAC101B96400E02646287880062DD54A
:1039F000D8F8080000281ED0B0F1805F0CD0B0F1DC
:103A0000005F10D0B0F1405F15D0B0F1804F12D000
:103A1000B0F1A04F0FD00DE0002105F1080000F03B
:103A20001BFF044607E0022105F1280000F08CFF8F
:103A3000044600E00124200007D1796C21F0E04128
:103A4000D8F808000143796400E02646287840064B
:103A50002DD5D8F8140000281ED0B0F5806F0CD0FA
:103A6000B0F5006F10D0B0F5406F15D0B0F5805FA5
:103A700012D0B0F5A05F0FD00DE0002105F10800D5
:103A800000F0EAFE044607E0022105F1280000F0FC
:103A90005BFF044600E00124200007D1B96C21F44B
:103AA000E051D8F814000143B96400E026462878B4
:103AB00000062DD5D8F8180000281ED0B0F5005FFC
:103AC0000CD0B0F5804F10D0B0F5C04F15D0B0F588
:103AD000004F12D0B0F5204F0FD00DE0002105F1BE
:103AE000080000F0B9FE044607E0022105F12800B5
:103AF00000F02AFF044600E00124200007D1B96C41
:103B000021F46041D8F818000143B96400E026466A
:103B10002878000713D5D5F88000B0F5805F07D16D
:103B2000022105F1280000F00FFF002800D0012637
:103B3000796C21F44051D5F88000014379642878EC
:103B4000C00613D5D8F81000B0F5807F07D1022148
:103B500005F1280000F0F8FE002800D00126B96C1D
:103B600021F44071D8F810000143B964D5E900018F
:103B7000000324D5D8F81C00002806D0B0F5803FFB
:103B80000AD0B0F5003F0FD00DE0002105F108008C
:103B900000F062FE044607E0022105F1280000F073
:103BA000D3FE044600E00124200007D1B96C21F4C3
:103BB0004031D8F81C000143B96400E02646D5E93D
:103BC0000001400323D5D8F80000B0F5801F06D0CF
:103BD000B0F5001F08D0B0F5401F0DD00BE0F8691C
:103BE00040F40030F86107E0012105F1280000F001
:103BF000ABFE044600E00124200007D1796C21F4DB
:103C00004011D8F800000143796400E02646D5E968
:103C10000001C0031DD5286D002803D0B0F5803FFA
:103C200005D00BE0F86940F40030F86107E00221AC
:103C300005F1080000F010FE044600E00124200019
:103C400006D1F96B21F48031286D0143F96300E05E
:103C50002646D5E90001800007D5022105F128009C
:103C600000F072FE002800D00126D5E90001800393
:103C70001CD5E86F00280FD0B0F5807F06D0B0F5D6
:103C8000007F09D0B0F5407F06D004E0F86940F429
:103C90000030F86100E00124200006D1796C21F4A5
:103CA0004071E86F0143796400E02646D5E90001E0
:103CB000C00205D5396C21F00041286F01433964F9
:103CC000D5E90001800205D5396C21F08071A86E1C
:103CD00001433964D5E90001400008D5386820F473
:103CE000004038603968D8F8300001433960D5E9C0
:103CF0000001002805D5F96B21F04051686D0143A2
:103D0000F963D5E90001000206D5796C21F4400180
:103D1000D8F8040001437964D5E9000100F00000FF
:103D200011F0010101D1002807D0014605F108007A
:103D300000F092FD010000D00646D5E9000100F038
:103D4000000011F0020101D1002807D0012105F186
:103D5000080000F081FD010000D00646D5E9000111
:103D600000F0000011F0040101D1002807D0022169
:103D700005F1080000F070FD010000D00646D5E90D
:103D8000000100F0000011F0080101D1002807D067
:103D9000014605F1280000F0D7FD010000D00646DD
:103DA000D5E9000100F0000011F0100101D1002858
:103DB00007D0012105F1280000F0C6FD010000D068
:103DC0000646D5E9000100F0000011F0200101D104
:103DD000002807D0022105F1280000F0B5FD010000
:103DE00000D006463046401E8041C043C00FBDE8AB
:103DF000F08700001044025800480258CFFFFF002F
:103E000000B589B0002947D1B0F5807F44D1DFF8F3
:103E10002C1A086D00F0070004283BD8DFE810F0EA
:103E200005000B0011002C0117000868800100F14B
:103E30004382002054E20868000100F17F810020E5
:103E40004EE20868800000F1ED80002048E2C86C76
:103E500000F040500A68520708D5002806D1DFF864
:103E6000EC090968C1F3C101C84039E20A68D2050A
:103E700005D5B0F1805F02D1DFF8C80930E20968EA
:103E8000890305D5B0F1005F02D1DFF8C80927E248
:103E9000002025E2002023E200294DD1B0F5806FFB
:103EA0004AD1DFF89819886D10F460000DD0B0F594
:103EB000001F10D0B0F5800F13D0B0F5C00F00F088
:103EC000DB80B0F5000F12D034E00868800100F10B
:103ED000F381002004E20868000100F12F81002036
:103EE000FEE10868800000F19D800020F8E1C86CC8
:103EF00000F040500A68520708D5002806D1DFF8C4
:103F00004C090968C1F3C101C840E9E10A68D2055A
:103F100005D5B0F1805F02D1DFF82809E0E109683A
:103F2000890305D5B0F1005F02D1DFF82809D7E198
:103F30000020D5E10020D3E100294CD1B0F5006F7D
:103F400049D1DFF8F818886D10F0E0600DD0B0F1BD
:103F5000807F10D0B0F1007F13D0B0F1407F00F02F
:103F60008B80B0F1806F11D033E00868800100F1E0
:103F7000A3810020B4E10868000100F1DF80002087
:103F8000AEE1086880004DD40020A9E1C86C00F0C3
:103F900040500A68520708D5002806D1DFF8AC085F
:103FA0000968C1F3C101C8409AE10A68D20505D584
:103FB000B0F1805F02D1DFF88C0891E109688903D4
:103FC00005D5B0F1005F02D1DFF8880888E1002054
:103FD00086E1002084E1002953D1B0F5805F50D103
:103FE000DFF85818086D10F4E0400CD0B0F5805F91
:103FF0000FD0B0F5005F12D0B0F5405F3CD0B0F507
:10400000804F16D03BE00868800100F15581002008
:1040100066E10868000100F19180002060E1086815
:10402000800004D5684600F049FA009858E1002065
:1040300056E1C86C00F040500A68520708D50028C5
:1040400006D1DFF808080968C1F3C101C84047E19B
:104050000A68D20505D5B0F1805F02D1DFF8E40728
:104060003EE10968890305D5B0F1005F02D1DFF8B0
:10407000E40735E1002033E1DFF8BC0930E100203E
:104080002EE1002945D1B0F5005F42D1DFF8AC1731
:10409000086D10F4E0200FD0B0F5803F0FD0B0F5E0
:1040A000003F12D0B0F5403F15D0B0F5802F1ED0A4
:1040B000B0F5A02F23D02AE000F0BFFE10E1086881
:1040C000000100F1038100200AE10868800000F18E
:1040D000B180002004E10868400706D5DFF86C07CE
:1040E0000968C1F3C101C840FAE00020F8E008689F
:1040F000C00502D5DFF84C07F2E00020F0E00868C8
:10410000800302D5DFF84C07EAE00020E8E0002059
:10411000E6E0002948D1B0F5002F45D1DFF81C17A3
:10412000886D10F4403006D0B0F5803F0DD0B0F56A
:10413000003F14D036E00868000104D503A800F061
:10414000E1F80398CCE00020CAE00868800004D5BC
:10415000684600F0B3F90298C2E00020C0E0C86CE5
:1041600000F040500A68520708D5002806D1DFF851
:10417000DC060968C1F3C101C840B1E00A68D20594
:1041800005D5B0F1805F02D1DFF8B806A8E0096874
:10419000890305D5B0F1005F02D1DFF8B8069FE0D2
:1041A00000209DE000209BE000291DD1B0F5803F5C
:1041B0001AD1DFF88806C16C11F4803103D0B1F553
:1041C000803F05D00EE00068800175D4002087E0B4
:1041D0000068000104D503A800F094F805987FE07A
:1041E00000207DE000207BE0002948D1B0F5804F21
:1041F00045D1DFF84816886D10F0E0400FD0B0F1DF
:10420000805F0FD0B0F1005F11D0B0F1405F18D0E7
:10421000B0F1804F21D0B0F1A04F26D02DE000F0BA
:1042200061F85DE00868000150D4002058E008689B
:10423000800004D5684600F041F9019850E0002064
:104240004EE00868400706D5DFF800060968C1F3AC
:10425000C101C84044E0002042E00868C00502D522
:10426000DFF8E0053CE000203AE00868800302D572
:10427000DFF8E00534E0002032E0002030E00029E3
:104280002DD1B0F5004F2AD1DFF8B005016D11F046
:10429000405106D0B1F1805F0BD0B1F1005F12D078
:1042A0001BE00068800302D5DFF8A80518E00020B5
:1042B00016E00068800104D506A800F0E3F907982D
:1042C0000EE000200CE00068000104D503A800F017
:1042D00019F8049804E0002002E0002000E000202B
:1042E00009B000BD80B500F08EFDDFF85017DFF893
:1042F00050271268C2F30212895C01F01F01C84006
:1043000002BD000030B4DFF834359C6A04F00304C9
:10431000996AC1F30531DA6AC2F30015DA6BC2F3A8
:10432000CC0212FB05F500EE105AB8EE400A002947
:1043300000F0BE80002C03D0022C56D03BD36EE0A0
:10434000DFEDCC0A20EE200A00EE901AF8EE600AAB
:10435000196889061BD5DFF8F4141A68C2F3C10284
:10436000D14001EE101AB8EE411AC1EE200A996B45
:10437000C1F3080101EE101AB8EE411A31EE000A3D
:10438000B7EE001A30EE010A20EE800A60E09FEDE1
:10439000BA1AC1EE200A996BC1F3080101EE101A96
:1043A000B8EE411A31EE000AB7EE001A30EE010AFB
:1043B00020EE800A4CE000EE901AF8EE600A9FEDC5
:1043C000AF1AC1EE200A996BC1F3080101EE101A71
:1043D000B8EE411ADFEDA71A00EE211AB7EE000A77
:1043E00031EE000A20EE800A32E000EE901AF8EE7C
:1043F000600A9FEDA31AC1EE200A996BC1F3080170
:1044000001EE101AB8EE411ADFED9A1A00EE211AE9
:10441000B7EE000A31EE000A20EE800A18E000EE46
:10442000901AF8EE600A9FED951AC1EE200A996B7A
:10443000C1F3080101EE101AB8EE411ADFED8D1A32
:1044400000EE211AB7EE000A31EE000A20EE800AD3
:10445000996BC1F3462100EE901AF8EE600AB7EEB0
:10446000001A70EE810AC0EE200AFCEEE00AC0EDF0
:10447000000A996BC1F3064100EE901AF8EE600A4B
:1044800070EE810AC0EE200AFCEEE00AC0ED010ADF
:10449000996BC1F3066100EE901AF8EE600A70EEB7
:1044A000810A80EE200ABCEEC00A80ED020A03E019
:1044B000002101604160816030BC704730B4DFF89A
:1044C0007C339C6A04F00304996AC1F30551DA6AEB
:1044D000C2F300255A6CC2F3CC0212FB05F500EEC4
:1044E000105AB8EE400A002900F0BE80002C03D01C
:1044F000022C56D03BD36EE0DFED5E0A20EE200AA0
:1045000000EE901AF8EE600A196889061BD5DFF8EC
:104510003C131A68C2F3C102D14001EE101AB8EE82
:10452000411AC1EE200A196CC1F3080101EE101AFC
:10453000B8EE411A31EE000AB7EE001A30EE010A69
:1045400020EE800A60E09FED4C1AC1EE200A196C43
:10455000C1F3080101EE101AB8EE411A31EE000A5B
:10456000B7EE001A30EE010A20EE800A4CE000EEB1
:10457000901AF8EE600A9FED411AC1EE200A196CFC
:10458000C1F3080101EE101AB8EE411ADFED391A35
:1045900000EE211AB7EE000A31EE000A20EE800A82
:1045A00032E000EE901AF8EE600A9FED351AC1EE87
:1045B000200A196CC1F3080101EE101AB8EE411A75
:1045C000DFED2C1A00EE211AB7EE000A31EE000AD8
:1045D00020EE800A18E000EE901AF8EE600A9FEDD7
:1045E000271AC1EE200A196CC1F3080101EE101A56
:1045F000B8EE411ADFED1F1A00EE211AB7EE000ADD
:1046000031EE000A20EE800A196CC1F3462100EE5B
:10461000901AF8EE600AB7EE001A70EE810AC0EE4A
:10462000200AFCEEE00AC0ED000A196CC1F3064155
:1046300000EE901AF8EE600A70EE810AC0EE200AD1
:10464000FCEEE00AC0ED010A196CC1F3066100EE50
:10465000901AF8EE600A70EE810A80EE200ABCEE35
:10466000C00A80ED020A03E0002101604160816020
:1046700030BC7047000000390024744C0024744A98
:104680008096184C30B46D4B9C6A04F00304996A10
:10469000C1F30511DD6A05F001055A6BC2F3CC02C6
:1046A00012FB05F500EE105AB8EE400A002900F0A2
:1046B000BD80002C03D0022C55D03AD36DE0DFED45
:1046C0005E0A20EE200A00EE901AF8EE600A1968E1
:1046D00089061AD55D491A68C2F3C102D14001EEBC
:1046E000101AB8EE411AC1EE200A196BC1F3080185
:1046F00001EE101AB8EE411A31EE000AB7EE001AB8
:1047000030EE010A20EE800A60E09FED4D1AC1EE06
:10471000200A196BC1F3080101EE101AB8EE411A14
:1047200031EE000AB7EE001A30EE010A20EE800AE0
:104730004CE000EE901AF8EE600A9FED431AC1EECD
:10474000200A196BC1F3080101EE101AB8EE411AE4
:10475000DFED391A00EE211AB7EE000A31EE000A39
:1047600020EE800A32E000EE901AF8EE600A9FED2B
:10477000381AC1EE200A196BC1F3080101EE101AB4
:10478000B8EE411ADFED2C1A00EE211AB7EE000A3E
:1047900031EE000A20EE800A18E000EE901AF8EEE2
:1047A000600A9FED271AC1EE200A196BC1F30801B8
:1047B00001EE101AB8EE411ADFED1F1A00EE211AB1
:1047C000B7EE000A31EE000A20EE800A196BC1F341
:1047D000462100EE901AF8EE600AB7EE001A70EE6D
:1047E000810AC0EE200AFCEEE00AC0ED000A196B57
:1047F000C1F3064100EE901AF8EE600A70EE810AED
:10480000C0EE200AFCEEE00AC0ED010A196BC1F30C
:10481000066100EE901AF8EE600A70EE810A80EEF2
:10482000200ABCEEC00A80ED020A03E0002101600C
:104830004160816030BC704700000039004402587C
:104840000024744C00093D000024744A0090D003F9
:104850008096184C005A6202F8B505460C46794E0F
:10486000B06A00F00300032801D10120F2BD3068D6
:1048700020F080603060FEF709FE074630680001D6
:1048800006D5FEF703FEC01B0328F7D30320F2BDB5
:10489000B06A20F47C30296840EA0130B062686870
:1048A000401EC0F30800A968491E490201F47E4178
:1048B0000843E968491E090401F4FE010843296917
:1048C000491E090601F0FE410843B063F16A21F078
:1048D000C00168690143F162F16A21F02001A86911
:1048E0000143F162F06A20F01000F062F06B6FF3A8
:1048F000CF00E96940EAC100F063F06A40F01000BF
:10490000F062002C04D1F06A40F40020F06209E06B
:10491000012CF06A03D140F48010F06202E040F410
:104920000010F062306840F080603060FEF7AEFD4D
:1049300004463068000105D4FEF7A8FD001B0328DB
:10494000F7D3A3E70020F2BDF8B505460C463D4E6F
:10495000B06A00F00300032801D10120F2BD3068E5
:1049600020F080503060FEF791FD074630688000EF
:1049700006D5FEF78BFDC01B0328F7D30320F2BD3D
:10498000B06A20F07C70296840EA0150B062686823
:10499000401EC0F30800A968491E490201F47E4187
:1049A0000843E968491E090401F4FE010843296926
:1049B000491E090601F0FE4108433064F16A21F402
:1049C000406168690143F162F16A21F40071A869EC
:1049D0000143F162F06A20F48070F062706C6FF352
:1049E000CF00E96940EAC1007064F06A40F4807069
:1049F000F062002C04D1F06A40F48000F06209E01B
:104A0000012CF06A03D140F40000F06202E040F0B3
:104A10008070F062306840F080503060FEF736FD04
:104A200004463068800005D4FEF730FD001B0328E3
:104A3000F7D3A3E70020F2BD0080BB004C4801087B
:104A400020440258004402582DE9F04104460E4625
:104A5000002C00F0AE80DFF80C74386800F00F0016
:104A6000B0420AD23868000956EA00103860386847
:104A700000F00F00B04240F09C80DFF8EC5320784B
:104A800040070AD52069A96901F07001814204D26A
:104A9000A96921F070010843A861207800070AD5B0
:104AA0006069E96901F07001814204D2E96921F08D
:104AB00070010843E8612078C0060AD5A069E96959
:104AC00001F4E061814204D2E96921F4E061084324
:104AD000E861207880060AD5E069296A01F0700152
:104AE000814204D2296A21F07001084328622078AB
:104AF00080070AD5E068A96901F00F01814204D25C
:104B0000A969090950EA0110A8612078C00733D5C6
:104B1000A96921F47061A0680143A9616068022855
:104B200003D1296889030ED443E0032803D12968FF
:104B3000890108D43DE00128296802D1C90502D4C1
:104B400037E0490735D52969C90850EAC10028610D
:104B5000FEF79CFC8046286900F038006168B0EBE5
:104B6000C10F09D0FEF792FCA0EB080041F2893199
:104B70008842F0D3032076E0207880070AD5E068E9
:104B8000A96901F00F01884204D2A969090950EA14
:104B90000110A861386800F00F0086420BD2386817
:104BA000000956EA00103860386800F00F00B04283
:104BB00001D0012057E0207840070AD52069A96973
:104BC00001F07001884204D2A96921F07001084304
:104BD000A861207800070AD56069E96901F07001D1
:104BE000884204D2E96921F070010843E861207825
:104BF000C0060AD5A069E96901F4E061884204D2DF
:104C0000E96921F4E0610843E861207880060AD56B
:104C1000E069296A01F07001884204D2296A21F012
:104C200070010843286200F021F8DFF85012AA69E9
:104C3000C2F303228A5C02F01F02D040AA6902F08C
:104C40000F02895C01F01F010246CA40DFF82412FE
:104C50000A60DFF81C120860DFF81C020068BDE87B
:104C6000F04100F015B9BDE8F081000010B47E4AB3
:104C7000106910F0380004D010280CD018280CD07F
:104C8000BEE07A481168890640F1BB801168C1F323
:104C9000C101C840B5E07A48B3E0936A03F003036A
:104CA000906AC0F30510D46A04F00104516BC1F39B
:104CB000CC0111FB04F400EE104AB8EE400A0028C3
:104CC00000F09C80002B03D0022B55D03AD36DE02E
:104CD000DFED600A20EE200A00EE900AF8EE600A8E
:104CE000106880061AD561481168C1F3C101C84037
:104CF00001EE100AB8EE411AC1EE200A106BC0F3A3
:104D0000080001EE100AB8EE411A31EE000AB7EEC3
:104D1000001A30EE010A20EE800A60E09FED4E1A84
:104D2000C1EE200A106BC0F3080001EE100AB8EEC5
:104D3000411A31EE000AB7EE001A30EE010A20EEF9
:104D4000800A4CE000EE900AF8EE600A9FED431AEC
:104D5000C1EE200A106BC0F3080001EE100AB8EE95
:104D6000411ADFED3C1A00EE211AB7EE000A31EECF
:104D7000000A20EE800A32E000EE900AF8EE600AA7
:104D80009FED371AC1EE200A106BC0F3080001EE48
:104D9000100AB8EE411ADFED2F1A00EE211AB7EE15
:104DA000000A31EE000A20EE800A18E000EE900AB8
:104DB000F8EE600A9FED291AC1EE200A106BC0F3CD
:104DC000080001EE100AB8EE411ADFED221A00EEDB
:104DD000211AB7EE000A31EE000A20EE800A106BAD
:104DE000C0F34620401C00EE900AF8EE600A80EE08
:104DF000200ABCEEC00A10EE100A02E0002000E01B
:104E0000204810BC704780B5FFF730FF1E491B4A91
:104E10000B68C3F30323D35C03F01F03D840154B87
:104E2000096801F00F01515C01F01F010246CA4000
:104E30001A600F490860186802BD80B5FFF7E3FFEC
:104E40000E49124A1268C2F30212895C01F01F0176
:104E5000C84002BD000000390024744C0024744A8C
:104E60008096184C00200052004402580090D00355
:104E7000A4010020A8010020A00100204C48010846
:104E8000005A620200093D00184402581C440258AE
:104E900038B50446104D2878002801D1012032BDD4
:104EA0004FF47A71B1FBF0F00C490968B1FBF0F0F6
:104EB00000F081F8002801D0012032BD102C08D26A
:104EC000002221464FF0FF3000F065F8AC60002072
:104ED00032BD012032BD00BF98010020A401002096
:104EE00054490A6860F30A2240F2FA5060F31F4204
:104EF0000A6070474F480068C0F302207047000006
:104F0000010007D4012200F01F018A404A494009EC
:104F100041F8202070470901020002D4474881541B
:104F20007047474802F00F02104400F8041C704715
:104F300010B400F00700C0F10703052B00D30423D1
:104F4000041D072C01D2002000E0C01E012404FA39
:104F500003F35B1E1940814004FA00F0401E10402C
:104F6000084310BC704738B50446641EB4F1807F16
:104F70000AD2344D6C600F214FF0FF30FFF7CBFFAA
:104F80000020A86007202860B4F1807F8041C043E2
:104F9000C00F32BDA4E770B504460D461646FFF7B4
:104FA000A9FF32462946FFF7C3FF01462046BDE868
:104FB0007040B0E7A4E7D6E7BFF35F8F22480168EF
:104FC00021F4803101600021016770471E4940F0E3
:104FD00001000867086840F480300860BFF34F8F15
:104FE000BFF36F8F7047194A41781160017800292B
:104FF0001CD041685160037BC17A090641EA037104
:10500000837A41EAC341437B41EA8341837B41EA9E
:105010004341C37B41EA0341437A41EA0321037AD6
:1050200041EA4301007801439160704700205060DD
:10503000906070470CED00E000E100E000E400E06B
:1050400018ED00E010E000E024ED00E098ED00E055
:105050007CB5040001D1012076BD04F1840108680B
:10506000002804D123200860204601F0B9F8DFF8B9
:10507000DC07016841F002010160006800F00200F5
:1050800000900098207A002803D1002001F02EFA29
:1050900003E04FF4000001F029FADFF8B4070068DC
:1050A00020684FF48055415941F001014151FEF70C
:1050B000EDF9064620684059C0070ED5FEF7E6F91F
:1050C000801B40F2F5118842F4D304F184000421DE
:1050D0004160E0210160012076BD204600F050FBD8
:1050E000FFF791FEDFF86C17B0FBF1F0401E21686E
:1050F000C1F8DC00204600F0ADFC20684FF4885178
:105100000222435862F394434350606904F18405DA
:1051100010F0030F05D001206860E0202860012016
:1051200076BD216841F208128B586FF34E0343EAB3
:1051300040038B50204600F005FD204600F026FD80
:1051400060684179007940EA01202168C1F80003D4
:105150006068C2788178090441EA0261427841EAD4
:105160000221007801432068C0F804130020686021
:1051700010202860002076BD10B50446D4F88400C5
:10518000102832D12320C4F884000420E066204691
:1051900000F04CF92068016841F0020101602068CC
:1051A000016841F0010101602068D0F8001D41F064
:1051B0000101C0F8001D206841F20411425842F07C
:1051C00001024250206841F20811425842F00102A7
:1051D000425020684FF48B51425842F48172425041
:1051E0002320C4F88400002010BD012010BDD0F899
:1051F0008410232926D12321C0F88410016841F2AC
:1052000004128B585B085B008B50016841F2081256
:105210008B585B085B008B5001680A68520852008B
:105220000A600168D1F8002D42F00102C1F8002D9A
:1052300001680A6822F002020A601021C0F8841096
:105240000020704701207047F8B50546144605F167
:105250008406002905D1706840F0010070600120CB
:10526000F2BD306823284FD10022284600F0B9FC57
:10527000002805D0706840F0020070600120F2BD87
:10528000BFF34F8FA86A05F1180151F82060401C48
:10529000A862042801D3001FA86205F11800A96ABA
:1052A00050F82100296801F589510860FEF7EEF8F1
:1052B0000746F068002825D54FF48B502968095817
:1052C000C9040AD505F184014A6842F008024A601F
:1052D0002A68105888600120F2BD14F1010FE8D04F
:1052E000FEF7D4F8C01B844201D3002CE1D105F1B4
:1052F0008400416841F0040141604FF04050F0608B
:105300000120F2BD0020F2BD0120F2BD2DE9F84FD1
:1053100080460C4600252E4608F18400002C05D15D
:10532000416841F00101416001207DE000682328CF
:1053300001D0012078E0D8F85C7008F1480050F8FE
:105340002790D8F86CA0CAF1040A4FE0D9F80C00F5
:10535000400007D5D9F80400C8F87800D9F8000053
:10536000C8F87400D9F80C00800003D4D8F87C0089
:10537000002832D0D9F80C00800004D50020C8F8ED
:105380006000C8F86400D8F814B0D9F80C00C00068
:105390000CD5D9F80CB0CBF30E0BD8F86400ABEBFE
:1053A000000BD9F80C00C8F8700001265B469BB2D0
:1053B000D9F8102008F1800108F17C0001F018F8FC
:1053C000D8F86000401CC8F86000D8F86400834436
:1053D000C8F864B00020C9F810007F1C042F00D367
:1053E0003F1F08F1480050F827906D1CD9F80C00B9
:1053F000002803D4554501D23000A7D02846D8F85C
:105400006C104018C8F86C0002D0404600F00EF84E
:10541000C8F85C70012E06D1D8F87C00206000200E
:10542000C8F87C0000E00120BDE8F28F2DE9FC41C6
:105430000646002000900124B76E06F1480050F89F
:105440002780F56E0CE04FF00140C8F80C007F1C7F
:10545000042F00D33F1F06F1480050F827806D1E2F
:10546000002D1ED0002C1CD0D8F8100000280CD124
:10547000684600F09FFF0098002801D1002404E056
:10548000C8F810000098C8F80000002CE8D0BFF35E
:105490005F8FB06D0028D6D04FF04140C8F80C00A7
:1054A000D5E7F06EA84206D00020316841F22812FC
:1054B0008850B766F566BDE8F38170B504461D46B1
:1054C0002068D0F80032DB071DD4D0F8003223F07A
:1054D000787343EA415323F4F81343EA024343F059
:1054E0000D03C0F80032FDF7D1FF0646206800F535
:1054F00000700168C90708D5FDF7C8FF801B40F29E
:10550000E9318842F2D3012070BD406880B2286042
:10551000002070BD38B504462068D0F80052ED0771
:1055200021D4D0F80002DFF8845A9BB26B6020F0DF
:10553000787040EA415020F4F81040EA024020F030
:105540000C0040F005002860FDF7A0FF054620682C
:10555000D0F80002C00708D5FDF798FF401B40F2C5
:10556000E9318842F3D3012032BD002032BD002949
:1055700001D10120704701F1280203681B6803F084
:105580000C03536003681B681B0903F001031370CD
:1055900003681B6803F060034B6203681B681B0A07
:1055A00003F0010383F0010381F8203003681B68D6
:1055B0005B0A03F00103CB7703681B689B0A03F0C7
:1055C000010383F001038B7703681B68DB0A03F098
:1055D00001034B7703681B681B0B03F001030B7778
:1055E00003681B6803F400538B6103681B6803F4B2
:1055F00080434B6103681B681B0C03F001038B7431
:1056000003681B685B0C03F0010383F001034B7418
:1056100003681B68DB0C03F0010383F001030B74C8
:1056200003681B681B0D03F00103CB7303681B6841
:105630005B0D03F001038B7303681B689B0D03F084
:1056400001034B7303681B68DB0D03F001030B734D
:1056500003681B6803F0E0638B6003681B68DB0E64
:1056600003F001030B7103681B6803F0E0430B6058
:1056700003685B68C3F30D03D36003685B681B0CAE
:1056800003F0010383F00103937203685B685B0C12
:1056900003F00103537203685B689B0C03F0010382
:1056A000137203685B681B0E03F001031374036835
:1056B0005B68C3F3446353610368DB681B0A03F050
:1056C000010313760368DB6803F00F03D3614C31E9
:1056D00003681B6F5B0803F001030B7203681B6F09
:1056E000DB0903F0010383F001030B7003681B6FF8
:1056F00003F070034B6003681B6F1B0C136202689E
:10570000D2F8902002F001028A720268D2F890204A
:10571000520802F001024A720268D2F8002D02F02B
:105720007202CA600268D2F8302D02F023020A61C8
:105730000268D2F8302DD20802F001028A750268A0
:10574000D2F8302D120902F001024A750068D0F833
:10575000300D800900F0010080F001000875002084
:10576000704780B5002901D1012002BDD0F8842006
:10577000102A03D100F070F8002002BD012002BD04
:1057800038B504462068D0F8005225F47065FFF75C
:105790003AFBDFF81C180918DFF81828914202D2EA
:1057A00045F400751CE0DFF810180918DFF80C2824
:1057B000914202D245F4407512E0DFF8041809184E
:1057C000DFF8002891420BD3DFF8FC170818DFF848
:1057D000FC17884202D245F4807501E045F48065EB
:1057E0002068C0F8005231BD10B4002901D1012059
:1057F00028E04A7A521E9241D20F0B78CC7843EAC5
:1058000044030C7943EA84030C7A43EAC4034C79D9
:1058100043EA041343EA4213CA7943EA02238A792A
:1058200043EA42238A7843EA82234A7843EAC273EE
:10583000C968194302689368DFF894070340194365
:105840009160002010BC704700000000F444025832
:105850000404005840420F00F0B40A7C571EBF41B8
:10586000FF0F4A7CB2F1010C6CEB0C0C4FEADC7CB4
:105870008A7F551EAD41ED0F91F82020561EB6418E
:10588000F60F01F128038C680A6814430A7944EA88
:10589000C2640A7B44EAC2544A7B44EA82548A7B4B
:1058A00044EA4254CA7B44EA025444EAC74444EA04
:1058B0004C448A7C44EA02444A6914438A6914438A
:1058C0000A7F44EA02344A7F44EAC22444EA852437
:1058D000CA7F44EA422444EA06244A6A14431A78F6
:1058E00044EA02145D68254304682668DFF8E4266C
:1058F0001640354325609A7A541EA441E40F5D6931
:105900001A7C120642EA45621D7A42EA85425D7AB5
:1059100042EA454242EA0442DC68144305686E6884
:10592000DFF8B426164034436C600468E568DFF89D
:10593000AC2615401A7E45EA0225DA691543E56072
:1059400001F14C021178491E8941C90F157A54683A
:1059500044EA450444EAC114196A44EA014403686C
:105960001D6F4FF60D710D402C431C670368D3F873
:105970009040A408A400517A44EA4104917A0C436F
:10598000C3F890400368D3F8004D24F07204D16846
:105990000C43C3F8004D117D4B1E9B41DB0F116979
:1059A00041EA8311537D41EA0311927D41EAC2012C
:1059B0000068D0F8302D22F07B021143C0F8301D72
:1059C000F0BC704730B403684FF480541D59DFF8C1
:1059D000102615400A6815431D51036841F204045E
:1059E0001D59DFF8002615400A7945EA02358A6814
:1059F00015430A7B45EAC2351D5103684FF48854AC
:105A00001D59DFF8E42515404A7B45EA02450A6A3C
:105A100015431D51036841F204141D59DFF8CC25CC
:105A200015400A6915430A7D45EA02154A7F45EA91
:105A300002351D51026841F20813D458DFF8B00551
:105A40000440087F44EAC07488690443D45030BCE1
:105A50007047000010B5A2B0044601208DF8330055
:105A6000002012908DF841008DF8430001208DF840
:105A7000280013A8012181728DF8321000218DF8C1
:105A80004C101CA901220A754FF400520F920022FB
:105A9000027442614A758A754FF4C362C260002283
:105AA0008DF830200B9201228DF8352000228DF8E0
:105AB00036208DF840204A600262426002768A7287
:105AC00001228DF8422020220A6101228DF8442013
:105AD000002242724FF0405209924FF480420E92DF
