:020000040800F2
:10000000388700207D460008F5430008F7430008C4
:10001000F9430008FB430008FD430008000000000E
:10002000000000000000000000000000FF43000886
:1000300001440008000000000344000805440008D3
:100040009D460008A1460008A5460008A9460008EC
:10005000AD460008B1460008B5460008B94600089C
:10006000BD460008C14600080D440008654400086C
:100070006F440008C5460008C9460008CD46000880
:10008000D1460008D5460008D9460008DD460008DC
:10009000E14600087944000883440008E54600086A
:1000A000E9460008ED460008F1460008F54600085C
:1000B000F9460008FD46000801470008054700080A
:1000C000094700080D470008114700088D44000843
:1000D0009744000815470008194700081D47000805
:1000E0002147000825470008294700082D47000838
:1000F0003147000835470008394700083D470008E8
:100100004147000845470008494700084D47000897
:10011000514700085547000859470008A144000806
:100120005D47000861470008654700086947000807
:100130006D470008714700087547000879470008B7
:100140007D47000881470008854700088947000867
:100150008D47000891470008954700089947000817
:100160009D470008A1470008A5470008A9470008C7
:10017000AD470008B1470008B5470008B947000877
:10018000BD470008C1470008C5470008C947000827
:10019000CD47000800000000AB440008B54400084B
:1001A000BF440008C9440008D1470008D5470008EB
:1001B000D9470008DD470008E1470008E547000887
:1001C000E9470008ED470008F1470008F547000837
:1001D000F9470008FD47000810B50400002C01D1C4
:1001E00001207AE0606A002806D16068B0F5827F5D
:1001F00006D00020E06103E0002020610020606163
:100200000020A06294F85D00002805D1002084F849
:100210005C00200000F006FF022084F85D002068EA
:10022000006830F0400021680860E06840F2017129
:10023000884201D3002101E04FF48051E068B0F51D
:10024000706F05D0E068B0F5E06F01D00020A062CB
:10025000606810F48270A26812F404421043227C99
:1002600012F002021043227D12F001021043A26933
:1002700012F400721043227F12F03802104394F8F7
:10028000202012F080021043A26A12F400521043A0
:1002900022681060A269120C12F0040294F8240083
:1002A00010F01000024394F8340010F008000243EC
:1002B000E06810F47060024311F48050024320683B
:1002C00042602068C06930F400602268D06100207C
:1002D0002066012084F85D00002010BD70B5050087
:1002E0000C00160095F85D00012801D0022099E06D
:1002F000002C03D0300080B2002801D1012091E011
:1003000095F85C00012801D102208BE0012085F8DE
:100310005C00032085F85D0000202866AC63AE8792
:10032000EE8700202864002028650020E864002073
:10033000A5F844000020A5F84600A868B0F5004FD5
:100340000BD12868006830F04000296808602868F0
:10035000006850F48040296808600FF24170696DB0
:1003600008630FF2D950696DC8620FF26170696D50
:1003700048630020696D88632868406830F48040D5
:1003800029684860E86840F2017188421DD2686DB2
:100390008069B0F5806F18D1E88FC0070AD428684B
:1003A000406830F4804029684860E88F80B2400897
:1003B000E8870AE02868406850F48040296848606F
:1003C000E88F80B24008401CE887EB8F286810F166
:1003D0000C02A96B686D00F069FF002808D0286E38
:1003E00050F010002866002085F85C00012019E01C
:1003F00028680068400605D42868006850F040006E
:1004000029680860002085F85C002868406850F082
:100410002000296848602868406850F00200296878
:100420004860002070BD70B505000C00160095F8FE
:100430005D00012801D00220C2E0002C03D0300072
:1004400080B2002801D10120BAE0A86800280ED1AE
:100450006868B0F5827F0AD1042085F85D0033001A
:100460009BB222002100280000F0ABF8A8E095F82C
:100470005C00012801D10220A2E0012085F85C0087
:10048000042085F85D00002028662C64A5F84460EF
:10049000A5F846600020E864002028650020A887B1
:1004A0000020E887A868B0F5004F0BD128680068E5
:1004B00030F04000296808602868006830F4804007
:1004C000296808602868406830F40050296848604E
:1004D000E86840F20171884206D32868406830F429
:1004E0008050296848602EE02868406850F48050A9
:1004F00029684860A86D8069B0F5806F23D12868AD
:10050000406830F4805029684860B5F84600C0075C
:100510000CD42868406830F4005029684860B5F869
:10052000460080B24008A5F846000CE02868406804
:1005300050F4005029684860B5F8460080B2400881
:10054000401CA5F846000FF26550A96D08630FF234
:100550006940A96DC8620FF27550A96D486300200B
:10056000A96D8863B5F846302A6C286810F10C0133
:10057000A86D00F09BFE002808D0286E50F01000F7
:100580002866002085F85C00012019E028680068D2
:10059000400605D42868006850F0400029680860CB
:1005A000002085F85C002868406850F02000296829
:1005B00048602868406850F00100296848600020C1
:1005C00070BD2DE9F84306000C0015001F0096F8D9
:1005D0005D90D6F804804846C0B201280BD0B8F52B
:1005E000827F06D1B068002803D14846C0B20428F3
:1005F00001D00220F6E0002C05D0002D03D03800F9
:1006000080B2002801D10120ECE096F85C000128BE
:1006100001D10220E6E0012086F85C0096F85D003A
:10062000042802D0052086F85D0000203066B463FF
:10063000B787F7873564A6F84470A6F8467000209F
:10064000F064002030653068406830F4C0403168A4
:100650004860F06840F20171884206D33068406813
:1006600030F48050316848604DE03068406850F4A4
:10067000805031684860706D8069B0F5806F19D125
:1006800096F83C00C0070AD43068406830F48040D7
:1006900031684860F08F80B24008F0870AE0306827
:1006A000406850F4804031684860F08F80B2400864
:1006B000401CF087B06D8069B0F5806F23D1306841
:1006C000406830F4805031684860B6F84600C00792
:1006D0000CD43068406830F4005031684860B6F897
:1006E000460080B24008A6F846000CE0306840683A
:1006F00050F4005031684860B6F8460080B24008B7
:10070000401CA6F8460096F85D00042808D10FF2B8
:100710009D30B16D08630FF2A120B16DC86207E092
:100720000FF29930B16D08630FF20930B16DC862F4
:100730000FF29930B16D48630020B16D8863B6F84F
:100740004630326C306810F10C01B06D00F0AEFD37
:10075000002808D0306E50F010003066002086F877
:100760005C0001203EE03068406850F001003168D4
:1007700048600020716D08630020716DC862002020
:10078000716D48630020716D8863F38F306810F1DC
:100790000C02B16B706D00F089FD002808D0306E3E
:1007A00050F010003066002086F85C00012019E04F
:1007B00030680068400605D43068006850F040009A
:1007C00031680860002086F85C003068406850F0AE
:1007D0002000316848603068406850F0020031689D
:1007E00048600020BDE8F283010091F85C00012818
:1007F00001D102200CE0012081F85C00086840680B
:1008000050F003000A685060002081F85C0000206E
:1008100070477CB50400206845682068866816F03B
:100820004100012805D1680603D52000E16C884706
:1008300082E0B00705D5280603D52000216D884742
:100840007AE016F4B07F77D0A80675D570061BD570
:1008500094F85D0003280DD0206E50F0040020664F
:10086000002000902068C068009020688068009098
:10087000009809E0002000902068C068009020687F
:1008800080680090009857E0B0060FD5206E50F0B9
:100890000100206600200090206880680090206899
:1008A000006830F04000216808600098F00509D524
:1008B000206E50F0080020660020009020688068BC
:1008C00000900098206E002835D02068406830F0F5
:1008D000E00021684860012084F85D0015F0030FF6
:1008E00026D0206840688008800021684860A06D9C
:1008F00000280CD00FF2FD10A16D8863A06D00F0F0
:1009000034FD002803D0206E50F040002066606D5A
:10091000002810D00FF2DD10616D8863606D00F06B
:1009200024FD002807D0206E50F04000206602E031
:10093000200000F043FEFFE773BD00007CB504001B
:10094000A56A00F051FE06002068006880062ED4DB
:100950002868406830F020002968486028684068AE
:1009600030F002002968486032006421280000F05D
:10097000F6F9002803D0286E50F020002866A868F9
:10098000002808D1002000902868C06800902868DE
:100990008068009000980020E887012085F85D00BD
:1009A000286E002803D0280000F008FE02E028008E
:1009B00001F0FFF873BD000070B50400A56A00F0F7
:1009C00013FE06002068006880062FD4286840685F
:1009D00030F0200029684860A86800280AD16868BB
:1009E000B0F5827F06D128684068800880002968B9
:1009F000486005E028684068400840002968486071
:100A000032006421280000F067F9002801D020207E
:100A100028660020A5F84600012085F85D00286EB4
:100A2000002803D0280000F0C9FD02E0280001F0F2
:100A300095FB70BD70B50400A56A00F0D5FD0600F9
:100A400020680068800625D42868406830F02000BF
:100A50002968486032006421280000F080F90028ED
:100A600003D0286E50F0200028662868406880086F
:100A70008000296848600020E8870020A5F846002B
:100A8000012085F85D00286E002803D0280000F0C2
:100A900095FD02E0280001F062FB70BD38B504004E
:100AA000A56A280001F05CFB31BD000038B50400E8
:100AB000A56A280001F055FB31BD000038B50400DF
:100AC000A56A280001F04EFB31BD000038B50400D6
:100AD000A56A286840688008800029684860286EF8
:100AE00050F010002866012085F85D00280000F015
:100AF00065FD31BD38B50400A56A0020A5F84600A3
:100B00000020E887280000F059FD31BD2DE9FC47A1
:100B100005000E0017009846DDF8289000F064FDEF
:100B20000400B8EB040419EB040400F05DFD8246F8
:100B3000684800684001000D00FB04F00090286840
:100B400080683040B04201D1012000E0002039002F
:100B5000C9B2884243D018F1010FF0D000F044FD33
:100B6000B0EB0A00A04201D2002C2FD128684068C7
:100B700030F0E000296848606868B0F5827F0DD1E8
:100B8000A868B0F5004F03D0A868B0F5806F05D114
:100B90002868006830F0400029680860A86AB0F54D
:100BA000005F0BD12868006830F4005029680860A5
:100BB0002868006850F4005029680860012085F812
:100BC0005D00002085F85C00032009E00098002803
:100BD00001D1002004000098401E0090AFE70020E3
:100BE000BDE8F6872DE9FE4F06000F001400984679
:100BF000DDF8309000208DF8000000F0F5FC0500D5
:100C0000B8EB050519EB050500F0EEFC82463068EF
:100C100010F10C0B2F48016823204143090D01FB03
:100C200005F10191306880683840A0424ED0B7F598
:100C3000C06F07D1002C05D19BF800008DF8000093
:100C40009DF8000018F1010FECD000F0CDFCB0EBE6
:100C50000A00A84201D2002D2FD13068406830F040
:100C6000E000316848607068B0F5827F0DD1B068EF
:100C7000B0F5004F03D0B068B0F5806F05D1306893
:100C8000006830F0400031680860B06AB0F5005F7D
:100C90000BD13068006830F400503168086030686B
:100CA000006850F4005031680860012086F85D004B
:100CB000002086F85C00032009E00198002801D19B
:100CC000002005000198401E0190ABE70020BDE820
:100CD000FE8F0000340000207CB504000D001600DB
:100CE0006068B0F5827F0DD1A068B0F5004F03D0E9
:100CF000A068B0F5806F05D12068006830F0400032
:100D00002168086000962B00002280212000FFF758
:100D1000FDFE002805D0206E50F020002066032044
:100D20001CE06068B0F5827F17D1A068B0F5004F75
:100D300003D0A068B0F5806F0FD100962B00002281
:100D40004FF4C0612000FFF74DFF002805D0206E52
:100D500050F020002066032000E0002076BD7CB526
:100D600004000D00160000962B0000224FF4C05125
:100D70002000FFF737FF002805D0206E50F020003C
:100D8000206603201FE000962B0000228021200017
:100D9000FFF7BCFE002805D0206E50F02000206632
:100DA000032010E000962B0000224FF4C0612000C9
:100DB000FFF718FF002805D0206E50F020002066B5
:100DC000032000E0002076BD80B5DFF8CC03016889
:100DD00051F001010160006810F0010000900098DE
:100DE000DFF8B803016851F080510160006810F02D
:100DF00080500090009801F02EFA01BD18B59BB00C
:100E0000040014210022684601F038FA542100221F
:100E100006A801F033FA2068DFF8841388424BD12A
:100E20004FF4805006905FF00070149006A801F017
:100E300059FA002801D001F08FF9DFF86803016842
:100E4000491C0160006801280AD1DFF850030168DD
:100E500051F000710160006810F000700590059875
:100E6000DFF84403016851F002010160006810F0EE
:100E70000200059005984FF4407000900220019008
:100E80000020029000200390092004906946DFF8BA
:100E90001C0301F0DDFB00220121152001F06DFD96
:100EA000152001F07CFD00220121162001F065FDD6
:100EB000162001F074FDB3E02068DFF8F4128842D8
:100EC0004AD14FF4805006905FF00070149006A84D
:100ED00001F008FA002801D001F03EF9DFF8C40261
:100EE0000168491C0160006801280AD1DFF8AC02E2
:100EF000016851F000710160006810F00070059009
:100F00000598DFF8A402016851F002010160006851
:100F100010F00200059005986020009002200190DA
:100F20000020029000200390092004906946DFF819
:100F30007C0201F08DFB00220121562001F01DFDF5
:100F4000562001F02CFD00220121572001F015FD53
:100F5000572001F024FD63E02068DFF85812884232
:100F60005ED14FF4805006905FF00070149006A898
:100F700001F0B8F9002801D001F0EEF889480168C5
:100F8000491C01600068012809D18448016851F0BA
:100F900000710160006810F00070059005988248AB
:100FA000016851F001010160016811F00101059132
:100FB0000599016851F002010160006810F002001B
:100FC000059005984FF40040009002200190002009
:100FD0000290002003900B20049069465FF090403F
:100FE00001F036FB082000900220019000200290C2
:100FF000002003900B20049069466C4801F028FB08
:1010000000220121582001F0B8FC582001F0C7FC53
:1010100000220121592001F0B0FC592001F0BFFC51
:101020001CB010BD38B586B00400142100226846FB
:1010300001F024F920686049884247D15648016888
:1010400051F480510160006810F4805005900598BB
:101050005548016851F001010160006810F001007D
:1010600005900598A0200090022001900020029099
:10107000032003900520049069465FF0904001F042
:10108000E7FA4E4D4E4828600A2068600020A860AC
:101090000020E86080202861002068610020A861AD
:1010A0002020E86100202862280000F093F8002842
:1010B00001D001F051F8A565AC6200220221232085
:1010C00001F05BFC232001F06AFC4AE020683D4906
:1010D000884246D13148016851F48041016000687E
:1010E00010F48040059005982F48016851F00201E6
:1010F0000160006810F00200059005984FF4204050
:10110000009002200190002002900320039005200F
:1011100004906946254801F09BFA2B4D2B48286026
:101120000D2068601020A8600020E8608020286101
:10113000002068610020A8610020E861002028628A
:10114000280000F047F8002801D001F005F8656597
:10115000AC6200220221242001F00FFC242001F0C7
:101160001EFC07B030BD1CB5040020681849884239
:1011700011D10A48016851F020010160006810F0A7
:1011800020000090009800220021372001F0F5FB9C
:10119000372001F004FC13BD6010024058100240DB
:1011A00000640040304700204C100240000400481A
:1011B00000680040006C004000300140BC45002049
:1011C00008000240003800401C4600201C0002407D
:1011D0000014004038B50400002C01D1012064E067
:1011E0002068DFF8B01388420CD22168DFF8A8032A
:1011F00041181420B1FBF0F080006064DFF89C031C
:1012000020640BE02168DFF8980341181420B1FB3B
:10121000F0F080006064DFF88C032064022084F822
:101220002500206805686FF30E15A0680543E06887
:1012300005432069054360690543A0690543E069EA
:101240000543206A054320680560200000F072F91C
:10125000A068B0F5804F01D100206060207900F0D7
:10126000FF00A16C0860206DE16C48606068002898
:101270000CD06068052809D2200000F079F9002020
:10128000616D0860E06DA16D486005E0002060655B
:101290000020A0650020E0650020E063012084F8C4
:1012A0002500002084F82400002032BD2DE9F04103
:1012B00004000D0016001F005FF0000894F82400E1
:1012C000012801D102204EE0012084F8240094F886
:1012D0002500012840D1022084F825000020E06389
:1012E0002068006840084000216808603B00320028
:1012F0002900200000F0FCF8206B002806D02068B0
:10130000006850F00E00216808600BE0206800685B
:1013100030F00400216808602068006850F00A007E
:1013200021680860A06C0068C00305D5A06C006847
:1013300050F48070A16C0860606D002805D0606D6D
:10134000006850F48070616D08602068006850F09B
:1013500001002168086004E0002084F824000220D5
:1013600080464046C0B2BDE8F08138B50400002593
:1013700094F8250002280AD00420E063012084F8B4
:101380002500002084F824000120050034E02068B6
:10139000006830F00E00216808602068006840088E
:1013A000400021680860A06C006830F48070A16C77
:1013B0000860012094F8441011F01F018840216C4E
:1013C0004860206DE16C4860606D002808D0606D59
:1013D000006830F48070616D0860E06DA16D486058
:1013E000012084F82500002084F82400A06B002848
:1013F00002D02000A16B88472800C0B232BD70B572
:101400000400206C056820680668042094F84410E5
:1014100011F01F0110FA01F10D4219D0710717D513
:1014200021680968890605D42168096831F004013A
:101430002268116094F8441011F01F018840216C5B
:101440004860206B002852D02000216B88474EE076
:10145000022094F8441011F01F0110FA01F10D421E
:101460001FD0B1071DD521680968890608D42168F5
:10147000096831F00A0122681160012184F8251001
:1014800094F8441011F01F018840216C486000203E
:1014900084F82400E06A002829D02000E16A884707
:1014A00025E0082094F8441011F01F0188400542FF
:1014B0001DD030071BD52068006830F00E00216871
:1014C0000860012094F8441011F01F018840216C3D
:1014D00048600120E063012084F82500002084F8A2
:1014E0002400606B002802D02000616B884770BD2B
:1014F00030B4046DC56C6C60446D002C02D0C46DBA
:10150000856D6C60012490F8445015F01F05AC40C7
:10151000056C6C60046863608468102C04D10468F6
:10152000A2600468E16003E00468A1600468E2600E
:1015300030BC704730B40168164A914201D21A4C4F
:1015400000E01A4C2200017801F0FF010839142351
:10155000B1FBF3F3416C890812EB810181641449FA
:10156000C164012513F01F018D40056530BC704733
:10157000017901F0FF010F4A12EB810242650E4A28
:101580008265012211F1FF0313F01F039A40C26527
:101590007047000008040240F8FFFDBF0000024051
:1015A000F8FBFDBF00040240000802402008024092
:1015B00080080240FC0802404009024070470EE0EB
:1015C00002684368024408305FEAC37C44BF4B446E
:1015D0005B1E52F804CB43F804CB091FF9D150F835
:1015E000041B0029ECD1704701480068704700BF18
:1015F0002C4700208068C00910F00100704781610D
:101600007047816270472DE9F0474FF40052DFF8D0
:10161000C81ADFF8C80A01F0DFF901F087FA00F014
:10162000F1F800F0CFF900F0A7F900F02AF900F086
:1016300050F900F078F9DFF8A80A01F0C6FADFF8EF
:10164000A45A4FF400522900DFF89C0AFEF7EBFE83
:10165000FFF7CAFF0600FFF7C7FF864201D216F563
:101660007A76DFF8887A3868DFF8841A0968884261
:101670005AD0DFF8808A3868285840451DD138682C
:1016800005EB000414F1140000F06BFB14F11800DA
:1016900000F0FAFB14F11C0000F08AFC38682030DE
:1016A0003860DFF8540A39680268914204D1002199
:1016B00039604FF400510160D3E7386805EB00044E
:1016C00094F80090386850FA89F03860DFF8280AFA
:1016D00039680268914204D1002139604FF4005109
:1016E0000160D4F801A0504601F02AFCC71E380062
:1016F000C0B2032801DB00F02FFDDFF8000A39003B
:10170000C9B250F8210090F8011140F8214090F83A
:101710000111491C80F8011190F801114029A0DB4A
:10172000002180F801119CE70027032F2FDADFF852
:10173000D00950F82740DFF8C40950F82780002C62
:1017400023D098F8000198F8011188421DD020009C
:1017500001F054FF002818D098F8000158F82090A4
:1017600099F800A05246D2B24946200000F0E9F9AB
:1017700098F80001401C88F8000198F80001402802
:10178000DFDB002088F80001DBE77F1CCDE7DFF816
:10179000740901F0C1F9002807D0DFF86C09FFF7E0
:1017A00029FF002801D100F022FA0024032CBFF603
:1017B00052AFDFF84C79DFF854092101014457F8A2
:1017C000240001F0FBFE5FF02C08DFF8449908FBD1
:1017D00004F009EB000157F8240001F0C9FE08FBF2
:1017E00004F809EB08004069002809D057F82400E4
:1017F000006880694008400057F824100968886133
:10180000641CD3E718B593B03821002205AC200042
:1018100000F034FD142100226C46200000F02EFD63
:10182000002000F0A1FC012005905FF4A0200690AC
:1018300002200C9003200D9004200E9020200F9089
:1018400002201090022011900220129005A802F0B0
:10185000D9F8002801D000F07FFC0F200090032071
:1018600001900020029000200390002004900421A9
:10187000684602F033FB002801D000F06DFC14B084
:1018800010BD80B5DFF86008DFF88818016000211E
:1018900041604FF4806181604FF4E061C1600021DC
:1018A0000161002141614FF40071816100210162F9
:1018B00000214162002181620721C1620021016390
:1018C00000214163FEF788FC002801D000F044FCB1
:1018D00001BD80B5DFF84008DFF82C1801604FF437
:1018E00082714160002181604FF4E061C16000219C
:1018F0000161002141614FF4007181610821C161E2
:101900000021016200214162002181620721C16240
:101910000021016300214163FEF75EFC002801D035
:1019200000F01AFC01BD1FB50C2100226C462000FE
:1019300000F0A4FCDFF8A847DFF8E00720609F2054
:1019400060600020A0604CF25030E0600020A06198
:10195000200001F0FDF8002801D000F0FDFB002080
:101960000090002002906946200002F037FC002819
:1019700001D000F0F1FB1FBD80B5DFF8A4070168BE
:1019800051F004010160016811F004010091009917
:10199000016851F001010160006810F00100009041
:1019A0000098002200210B2000F0E7FF0B2000F040
:1019B000F6FF002203210C2000F0DFFF0C2000F0D6
:1019C000EEFF01BD10B586B0142100226C46200048
:1019D00000F054FCDFF84C07016851F02001016071
:1019E000016811F0200105910599016851F001018C
:1019F0000160016811F0010105910599016851F03C
:101A000002010160006810F0020005900598DFF8FF
:101A1000184700224FF48051200000F0FFFE002202
:101A20004FF4A8515FF0904000F0F8FE10200090B5
:101A30005FF4041001900220029069465FF090402C
:101A400000F006FE4FF4805000900120019000202D
:101A50000290002003906946200000F0F9FD4FF449
:101A6000A8500090012001900020029000200390D7
:101A700069465FF0904000F0EBFD002200210A2053
:101A800000F07BFF0A2000F08AFF06B010BD0100C5
:101A9000DFF86C060268914201D1002005E0406841
:101AA000814201D1012000E0022070472DE9F84772
:101AB0009BB005000E00DFF874060168491C016048
:101AC0004021280001F08BFD002837D001AB11AA7E
:101AD0004021280001F098FC002801D000F03CFBD8
:101AE000149801F038FA07002800FFF7D0FF80466D
:101AF0000120DFF83C164246D2B28854EFF3108939
:101B000072B63900C9B20931DFF8D00500F07CFFA8
:101B1000040089F31088002CD2D0201D009001AB66
:101B20003A00D2B211994046C0B200F07FF8824626
:101B30002100DFF8D00500F0CFFFC1E71CB0BDE801
:101B4000F0872DE9F84189B004000D001600D5F8A2
:101B50000180404601F0F7F90700200001F04EFD3A
:101B6000002822D000975FF0804001900020029072
:101B7000701FC0B201F0FDF90390002004905FF4E3
:101B8000801005905FF4001006905FF4000007904D
:101B9000002008906A1D6946200001F004FC00281E
:101BA00001D000F0D9FA002000E001200AB0BDE821
:101BB000F08138B504002068DFF84C15884215D153
:101BC0004FF48051DFF86005FFF71BFDEFF3108540
:101BD00072B6DFF8300500F094FF0100DFF8FC0476
:101BE00000F050FF85F3108800F001F831BD38B5E2
:101BF000DFF81405FFF7FEFC002815D1DFF8040517
:101C000000F08AFF0400002C0ED025784FF480519C
:101C1000DFF81405FFF7F3FC2A00D2B292B22100DC
:101C2000DFF8F404FEF75AFB002032BD2DE9F84F2F
:101C300005000E0017001C00DDF82880781D88F8CC
:101C400000003100E81CC0B201F080F98146C8F8FC
:101C50000190002C08D00097A24618F1050B009ABD
:101C60005146584602F02CFB7F1D3800C0B2BDE83B
:101C7000F28F70B504002068DFF8A014884229D1E3
:101C8000DFF8B024D2E90001401C71F1FF31C2E954
:101C900000010025032D1DDADFF89464705D002833
:101CA0000CD0DFF8940430F81510DFF8900450F8E9
:101CB0002500FFF7A4FC0020705509E0DFF8780448
:101CC00030F81510DFF8740450F82500FFF799FC80
:101CD0006D1CDFE770BD10B50400200080B2002845
:101CE00001D101201AE0200080B23E280AD07D28D0
:101CF0000AD0FA280AD0B0F5FA7F09D0B0F57A7F79
:101D000008D009E0102009E0082007E0042005E0E1
:101D1000022003E0012001E000F01EFA10BD10B522
:101D20000400200080B2002801D1012018E020002A
:101D300080B2B0F57A7F09D0B0F5FA6F08D0B0F56F
:101D40007A6F07D0B0F5FA5F06D007E0082007E009
:101D5000042005E0022003E0012001E000F0FCF98E
:101D600010BD78B587B00400DFF8D453DFF8D46332
:101D70002E60280001F0CDFA2088002800F0828033
:101D80006088002802D10020A86002E04FF4407073
:101D9000A8602088FFF79FFF400068616088FFF718
:101DA000BEFF400068622E60002068600020E8608E
:101DB00001202874002068740020A8741820A861ED
:101DC0003720E861182028620420A8620520E86214
:101DD00004202863002068630120A8630020E863D2
:101DE000280001F0D9F8002801D000F0B5F9A86862
:101DF000B0F5407F0FD100220521280001F04BFAF9
:101E0000002801D000F0A8F9280001F057FA0028B6
:101E100001D000F0A1F95FF0804001900020029015
:101E20000020039001200490002005907FF0604086
:101E3000069001A9280001F0B1F9002801D000F0B6
:101E40008BF900200090002302220221280001F0DB
:101E5000DDF9002801D000F07FF9002201212800DF
:101E600001F0D3FB002801D000F076F901224021D7
:101E7000280001F0EAF9280001F033FA002801D027
:101E800000F06AF908B070BD78B587B00400AE4DB7
:101E9000AE4E2E60280001F03CFA2088002800F0A9
:101EA00085806088002802D10020A86002E04FF4FD
:101EB0004070A8602088FFF70EFF400068616088CE
:101EC000FFF72DFF400068622E60002068604FF42D
:101ED0004070A8600020E860012028740020687429
:101EE0000020A8741820A8613720E8611820286213
:101EF0000420A8620520E8620420286300206863AB
:101F00000120A8630020E863280001F045F80028BC
:101F100001D000F021F9A868B0F5407F0FD1002270
:101F20000521280001F0B7F9002801D000F014F9CC
:101F3000280001F0C3F9002801D000F00DF95FF08E
:101F40008040019000200290002003900120049026
:101F5000002005907FF06040069001A9280001F064
:101F60001DF9002801D000F0F7F8002000900023B0
:101F700002220221280001F049F9002801D000F0D6
:101F8000EBF800220121280001F03FFB002801D0DE
:101F900000F0E2F801224021280001F056F9280063
:101FA00001F09FF9002801D000F0D6F808B070BD0C
:101FB00078B587B00400664D664E2E60280001F0AB
:101FC000A8F92088002800F085806088002802D1C8
:101FD0000020A86002E04FF44070A8602088FFF75E
:101FE0007AFE400068616088FFF799FE40006862F1
:101FF0002E60002068604FF44070A8600020E86008
:1020000001202874002068740020A8741820A8619A
:102010003720E861182028620420A8620520E862C1
:1020200004202863002068630120A8630020E8637F
:10203000280000F0B1FF002801D000F08DF8A8685A
:10204000B0F5407F0FD100220521280001F023F9CF
:10205000002801D000F080F8280001F02FF90028B6
:1020600001D000F079F85FF08040019000200290EC
:102070000020039001200490002005907FF0604034
:10208000069001A9280001F089F8002801D000F08D
:1020900063F800200090002302220221280001F0B2
:1020A000B5F8002801D000F057F8002201212800DF
:1020B00001F0ABFA002801D000F04EF801224021D7
:1020C000280001F0C2F8280001F00BF9002801D027
:1020D00000F042F808B070BD38200020F84600201B
:1020E0007C46002038000020F444002018470020DF
:1020F0001C470020C66A0A9A2047002000000020E2
:102100000C0000201047002000380040C846002086
:102110004443002000300140584500200014004096
:10212000481002404C10024000040048284700209C
:10213000244700200847002018000020200000202D
:10214000C8430020006400402C4400200068004088
:1021500090440020006C004072B6FEE77047704764
:10216000704770477047000010B40200002A32D157
:10217000DFF8F000036813F4C063B3F5806F23D178
:10218000DFF8E4301C6834F480741C6001230468B8
:1021900063F34A240460DFF8D40003683220434329
:1021A000DFF8CC00B3FBF0F0401C0100DFF8C40006
:1021B00003685B0503D5002901D0491EF6E70068D6
:1021C000400545D5032044E0DFF89C00036833F464
:1021D000807303603CE0B2F5007F32D1DFF8840009
:1021E000036813F4C063B3F5806F23D1DFF8783050
:1021F0001C6854F480741C600123046863F34A244F
:102200000460DFF86800036832204343DFF86000B1
:10221000B3FBF0F0401C0100DFF8580003685B05D9
:1022200003D5002901D0491EF6E7006840050FD507
:1022300003200EE0DFF83000036853F4807303607E
:1022400006E0DFF820000223046863F34A240460F8
:10225000002010BC70470848016851F480410160BB
:102260007047000000700040807000403400002083
:1022700040420F00147000400870004062F30F22CB
:1022800062F31F42401810F0030308D0C91A1FD38D
:10229000DB0748BF00F8012D28BF20F8022D1300EE
:1022A00030B414461546103928BF20E93C00FAD84E
:1022B000490728BF20E90C0048BF40F8042D8900D9
:1022C00028BF20F8022D48BF00F8012D30BC704710
:1022D000C91818BF00F8012DCB0728BF00F8012D41
:1022E000704700002DE9F84F050000275FF0000857
:1022F000286800037AD55FF00009DFF83CA3DAF81C
:102300000000C0000DD4DAF8000050F08050CAF888
:102310000000DAF8000010F08050009000980120D2
:102320008146DFF818B3DBF8000050F48070CBF87A
:102330000000FFF759F90600DBF80000C00506D4DD
:10234000FFF752F9801B0328F6D30320070038005B
:10235000C0B200283FD1DFF8E8B2DBF8000010F48B
:1023600040700400002C15D0286D844212D0DBF898
:10237000000030F440700400DBF8000050F48030BE
:10238000CBF80000DBF8000030F48030CBF8000020
:10239000CBF80040E0070FD5FFF726F90600DBF881
:1023A0000000800708D4FFF71FF9801B41F2893134
:1023B0008842F4D3032007003800C0B2002808D1B7
:1023C000DBF8001031F44071286D0143CBF80010A8
:1023D00002E0B84600E0B8464846C0B2012805D140
:1023E000DAF8000030F08050CAF800002878C00702
:1023F00007D5DFF850120A68920892006868024315
:102400000A602878800707D5DFF838120A6832F0AA
:102410000C02A86802430A602878400707D5DFF855
:1024200024120A6832F03002E86802430A60287811
:10243000000707D5DFF80C120A6832F0C0022869DD
:1024400002430A602878C00607D5DFF8F8110A6849
:1024500032F44072686902430A602878800607D522
:10246000DFF8E0110A6832F44062A86902430A60AA
:102470002878400607D5DFF8CC110A6832F44052BC
:10248000E86902430A602878000607D5DFF8B4112E
:102490000A6832F44042286A02430A602868C0058C
:1024A00007D5DFF8A0110A6832F44032686A0243A7
:1024B0000A602868800307D5DFF88C110A68920843
:1024C0009200A86A02430A602868800507D5DFF8F1
:1024D00074110A6832F44022E86A02430A602868EC
:1024E000400511D5DFF85C110A6832F44012286B00
:1024F00002430A60286BB0F5801F05D1DFF84C015C
:10250000016851F4801101602868000511D5DFF8D9
:1025100034110A6832F44002686B02430A60686B47
:10252000B0F5800F05D1DFF82401016851F4801166
:1025300001602868C00411D5DFF808110A6832F07C
:102540004072A86B02430A60A86BB0F1807F05D18E
:10255000DFF8F800016851F48011016028688004F8
:1025600011D5DFF8E0100A6832F04062E86B0243F0
:102570000A60E86BB0F1006F05D1DFF8D0000168A8
:1025800051F4801101602868400411D5DFF8B410BF
:102590000A6832F04062286C02430A60286CB0F18D
:1025A000006F05D1DFF8A400016851F480110160CB
:1025B0002868000411D5DFF88C100A6832F0405208
:1025C000686C02430A60686CB0F1805F05D1DFF887
:1025D0007C00016851F4803101602868C00311D586
:1025E000DFF860100A6822F04042A86C02430A60DB
:1025F000A86CB0F1804F05D1DFF85000016851F4AC
:10260000803101602868400311D5DFF83C100A686A
:1026100032F44012E86C02430A60E86CB0F5001F27
:1026200005D1DFF82800016851F4801101604046AF
:10263000C0B2BDE8F28F00005810024000700040A8
:1026400090100240881002409C1002400C10024082
:10265000F8B4030000250868E840002800F0DC809A
:1026600001260F6816FA05F007403A00002A00F02C
:10267000D180087910F00300012804D0087910F007
:10268000030002281DD19F685FF0030C2800C0B230
:1026900040001CFA00FC37EA0C07D1F80CC02800F7
:1026A000C0B240001CFA00FC5CEA07079F60586853
:1026B000AE40B0434E68C6F30016AE40304304004F
:1026C0005C60087910F0030003280ED0DE68032751
:1026D0002800C0B240008740BE438F682800C0B2C7
:1026E000400087403E433400DC60087910F003006E
:1026F000022818D12800C00803EB8000066A0F27C3
:1027000015F00700C0B280008740BE430F6915F086
:102710000700C0B2800087403E4334002800C00854
:1027200003EB800004621E6803272800C0B240004B
:102730008740BE430F7917F003072800C0B240005E
:1027400087403E4334001C60486810F4403F61D02D
:102750004048066856F001060660006810F0010067
:10276000009000983C4F2800800857F820605FF0E8
:102770000F0C15F00300C0B280001CFA00FC36EA12
:102780000C06B3F1904F01D1002419E03348834285
:1027900001D1012414E03248834201D102240FE028
:1027A0003048834201D103240AE02F48834201D1FB
:1027B000042405E02D48834201D1052400E00624CD
:1027C00015F00300C0B28000844026432800800832
:1027D00047F82060264C206890434F68FF0200D5E0
:1027E00010432060234E346894434F68BF0200D5E5
:1027F00014433460204E306890434F68BF0300D5C7
:10280000104330601D4E346894434F68FF0300D579
:10281000144334606D1C1EE7F1BC70471300DBB23B
:10282000002B03D00B009BB2836102E00B009BB234
:102830008362704710B5040011480168220092B20B
:10284000114206D0210089B20160200080B201F05F
:102850008AFD10BD601002400800014000040048DD
:1028600000080048000C0048001000480014004810
:10287000080401400C04014004040140000401402C
:102880001404014010B410F00703DFF82C41226853
:102890004FF6FF010A4052EA0322DFF820110A43F3
:1028A000226010BC7047DFF810010068C0F30220FE
:1028B00070470000010049B2002909D4012210F03C
:1028C0001F018A403E4903005BB25B0941F82320A7
:1028D000704710B4020052B2002A05D40A01394BE5
:1028E000040064B21A5508E00A01374B040064B2D0
:1028F00014F00F04234403F8042C10BC704770B488
:10290000030013F00704D4F10700052801D30420C5
:1029100001E0D4F10700251D072D01D2002500E0BC
:10292000E51E012616FA00F0401E0140A94016FAE5
:1029300005F56D1E2A401143080070BC704710B5A4
:102940000400601EB0F1807F01D301200EE0601E04
:102950001E4908600F215FF0FF30FFF7BAFF00202B
:102960001B49086007201B490860002010BD10B5F6
:1029700004002000FFF786FF10BDF8B504000D002D
:102980001600FFF790FF0700320029003800FFF71C
:10299000B6FF0100200040B2FFF79BFFF1BD10B56C
:1029A0000400200040B2FFF785FF10BD10B5040001
:1029B0002000FFF7C4FF10BD0CED00E00000FA0599
:1029C00000E100E000E400E018ED00E014E000E0C9
:1029D00018E000E010E000E070B504000D00160003
:1029E000002C01D1FFF7B8FB002D01D1FFF7B4FB9C
:1029F000002E01D1FFF7B0FB256005EB06006060FB
:102A0000A560E560002070BD38B504000D00002C05
:102A100001D1FFF7A1FB002D01D1FFF79DFB0021A4
:102A20002D1DED1C16480540A068E268904215D3A4
:102A30006268A068121A954205D2A0680100A068D9
:102A40002844A06014E0E2682068121A95420FD270
:102A50002068010020682844A06009E0E268A068BE
:102A6000121A954204D2A0680100A0682844A06010
:102A7000002902D00D60081D00E0002032BD0000DA
:102A8000FCFFFF0F70B504000D00002C01D1FFF713
:102A900063FB002D01D1FFF75FFB2068A84201D343
:102AA000FFF75AFB6068854201D3FFF755FB28000A
:102AB000061FE068864204D02068864201D0FFF7F6
:102AC0004BFB2068864201D12068E060E0683168F5
:102AD0000844E060002070BD0268002A0AD141600D
:102AE00042680260002243681A6042681268036804
:102AF0001A6005E0426811604160002243681A6074
:102B0000704701000868002801D1002003E0086830
:102B10000A6812680A60704701000868002802D03D
:102B20000868001D00E000207047000010B5002478
:102B30000320FFF71CFF0F2001F016FC002802D035
:102B40000120040001E0FEF73FF92000C0B210BDF3
:102B500010B50400002C01D1012035E094F83D00AF
:102B6000002805D1002084F83C002000FEF7FBFA85
:102B7000022084F83D00211D206800F05EF901204C
:102B800084F84800012084F83E00012084F83F00CA
:102B9000012084F84000012084F84100012084F8DD
:102BA0004200012084F84300012084F84400012001
:102BB00084F84500012084F84600012084F847008D
:102BC000012084F83D00002010BD010091F83D0077
:102BD000012801D0012048E0022081F83D0008686A
:102BE000C06850F001000B68D8600868DFF87C30DE
:102BF000984221D00868B0F1804F1DD00868DFF8F6
:102C00007030984218D00868DFF86830984213D0C6
:102C10000868DFF8643098420ED00868DFF85C304E
:102C2000984209D00868DFF85830984204D0086804
:102C3000DFF85030984211D108688368DFF8480007
:102C400003401A00062A0FD0B2F5803F0CD0086866
:102C5000006850F001000B68186005E00868006823
:102C600050F001000B68186000207047002C0140F4
:102C70000004004000080040000C00400034014007
:102C800000400140005001400700010070B5040001
:102C90002068C56820680669B00718D5A80716D54A
:102CA0007FF0020021680861012020772068806998
:102CB00010F0030F03D0200001F086FB05E0200098
:102CC00001F083FB200001F081FB002020777007DA
:102CD00018D5680716D57FF0040021680861022026
:102CE00020772068806910F4407F03D0200001F035
:102CF0006BFB05E0200001F068FB200001F066FBA3
:102D000000202077300718D5280716D57FF0080057
:102D100021680861042020772068C06910F0030F43
:102D200003D0200001F050FB05E0200001F04DFB36
:102D3000200001F04BFB00202077F00618D5E806B4
:102D400016D57FF0100021680861082020772068E0
:102D5000C06910F4407F03D0200001F035FB05E08E
:102D6000200001F032FB200001F030FB0020207732
:102D7000F00708D5E80706D57FF001002168086153
:102D80002000FEF776FF16F4025F08D0280606D56D
:102D90007FF4025021680861200001F018FBF00563
:102DA00008D5280606D57FF48070216808612000C8
:102DB00001F00EFB700608D5680606D57FF04000CE
:102DC00021680861200001F004FBB00608D5A806C0
:102DD00006D57FF0200021680861200001F0FAFA92
:102DE000F00208D5E80206D57FF48010216808615A
:102DF000200001F0F0FAB00208D5A80206D57FF451
:102E0000001021680861200001F0E6FA700208D580
:102E1000680206D57FF4800021680861200001F077
:102E2000DCFA300208D5280206D57FF400002168BC
:102E30000861200001F0D2FA70BD10B40368374C6D
:102E4000A04215D0B0F1804F12D0354A90420FD039
:102E5000DFF8E42090420BD0DFF8E020904207D06A
:102E6000DFF8C020904203D0DFF8C820904204D1A0
:102E700033F070031A004B681343A0421FD0B0F127
:102E8000804F1CD0264A904219D0DFF8AC209042E7
:102E900015D0DFF8A820904211D0DFF888209042AA
:102EA0000DD0DFF88420904209D0204A904206D00D
:102EB0001F4A904203D0DFF87C20904204D133F4C3
:102EC00040731A00CB68134333F080034A691343FD
:102ED00003608A68C2620A688262A0420FD0114A07
:102EE00090420CD0104A904209D0104A904206D02D
:102EF0000F4A904203D0DFF83C20904201D10A698A
:102F00000263012242610269D20703D502695208B5
:102F10005200026110BC704700000000002C01400C
:102F200000040040003401400040014000440140E2
:102F3000004801400050014000080040000C0040E3
:102F4000400FC0B2704720F0604070470200080098
:102F500062F35F707047092801D2C0B208E00D2803
:102F600003D280001838C0B202E00001B038C0B20D
:102F700070470100C9B20C2901DAC0B20AE00100B1
:102F8000C9B2202903DAC0B28008801D02E0C0B2B5
:102F900000090B3070470000F8B50400002C01D187
:102FA0000120FAE0DFF8C0652068B042A068B0F503
:102FB000407F94F85C00002805D1002084F85D0073
:102FC0002000FDF71BFF2068806930F010002168A9
:102FD0008861FEF709FB07002068806900070DD5AE
:102FE000FEF702FBC01B0B28F6D3206E50F0010049
:102FF0002066032084F85C000120CEE02068806910
:1030000050F0010021688861FEF7EEFA05002068A3
:103010008069C0070DD4FEF7E7FA401B0B28F6D3F2
:10302000206E50F001002066032084F85C0001202F
:10303000B3E02068806950F0020021688861206850
:10304000B04203D16068DFF824150860207C0128B5
:1030500006D12068806930F040002168886105E071
:103060002068806950F0400021688861607C0128F8
:1030700006D12068806950F480402168886105E0AD
:103080002068806930F4804021688861A07C012834
:1030900006D12068806930F480502168886105E09D
:1030A0002068806950F480502168886120688169B7
:1030B00031F44071A0680143206881612068806913
:1030C00030F0A400216888612068006930F01000A9
:1030D00021680861E068012806D12068806950F005
:1030E00004002168886121E0E06800281ED0E068C3
:1030F000022815D02068806950F08000216888611E
:103100002068006950F0100021680861E068032819
:103110000CD12068806950F020002168886105E0AA
:103120002068806950F0200021688861A069401EF5
:10313000E169491E090251EA4061206A401E0143CB
:103140006069401E51EA00412068C161A068B0F585
:10315000407F0FD1A06A401EE16A491E50EA01205B
:10316000216B491E50EA0110616A491E50EA014074
:103170002168C8602068D0F8C010E06B0143206867
:10318000C0F8C010200000F0AEFB0020A0650020B9
:103190002066012084F85C000020F2BD70B40200BB
:1031A00092F85C402000C0B2012803D02000C0B2D9
:1031B000022824D1086800280FD18D68C868C0068D
:1031C00050EA85700D6950EA05404D690543166C5B
:1031D000486816EB800635600FE0C8680D6955EA4F
:1031E000407588684E6956EA80763300506C4E68A8
:1031F00010EBC6000560061D3360002004E0106E71
:1032000050F002001066012070BC704770B40400DA
:10321000039D94F85C00012810D12068D0F880004C
:1032200080098001284350EA011050EA820050EAE8
:1032300043002668C6F88000002004E0206E50F0AD
:1032400004002066012070BC704710B4030093F89E
:103250005C00012818D140290AD11868D0F88000F4
:1032600030F4007050EA42201C68C4F8800009E085
:103270001868D0F8800030F4807050EA02201C6892
:10328000C4F88000002004E0186E50F004001866B6
:10329000012010BC704710B4030093F85C000128B3
:1032A00005D152EA01201C68A064002004E0186ED9
:1032B00050F004001866012010BC7047010091F81E
:1032C0005C00012807D10868C06850F400000A6853
:1032D000D060002004E0086E50F004000866012071
:1032E0007047010091F85C0001280CD1022081F8A0
:1032F0005C0008688069400840000A68906100200E
:103300000866002004E0086E50F004000866012002
:10331000704710B40100002291F85C0002283BD1F4
:103320000868806950F001000B689861086880693E
:10333000C0070CD40B2A08D3086E50F001000866B1
:10334000032081F85C0001202BE0521CEEE70023F3
:103350000868806930F010000C68A0610868806916
:1033600000070CD50B2B08D3086E50F0010008663F
:10337000032081F85C00012013E05B1CEEE7086885
:10338000806950F002000A68906100208865012081
:1033900081F85C00002004E0086E50F00800086628
:1033A000012010BC7047F8B504000D0016006868D5
:1033B0000028FFD094F85C0002281FD12068D0F8C4
:1033C000C400800205D5206E50F4007020660120F4
:1033D00019E02068D0F8C400C0F301473B00320078
:1033E0002900200000F0BCFA012010FA07F1226841
:1033F000C2F8CC10B840A065002004E0206E50F068
:10340000080020660120F2BD2DE9F04104000026ED
:1034100094F85C502800C0B2022840F09C804029FB
:1034200026D12068D0F8900010F00F0F05D1206E43
:1034300050F480702066012092E02068D0F890005F
:10344000C0F30060002808D02068D0F88000C0F3E6
:103450004020002801D0012006002068D0F890000C
:10346000C0F301208619A76C482000FB067725E0F1
:103470002068D0F8980010F00F0F05D1206E50F49E
:103480008070206601206BE02068D0F89800C0F3BF
:103490000060002808D02068D0F88000C0F3002029
:1034A000002801D0012006002068D0F89800C0F361
:1034B00001208619E76C482000FB0677386810F079
:1034C000804050605068002804D13868C0F38A40BA
:1034D000106003E0386820F060401060386810F039
:1034E00000509060386810F000401061381D076887
:1034F000BFB2D7610768C7F30347D760076817F4FF
:1035000080175761076817F4001797610768C7F3BA
:10351000066717620768FF0F5762071DBC465FF01A
:10352000000EDFF8D004D2F80C8010F808008645B1
:1035300006D21CF80E0003F80E001EF1010EF0E793
:10354000402903D12068C0F8946002E02068C0F8E8
:103550009C60002004E0206E50F0080020660120EE
:10356000BDE8F081000000000064004000650040FC
:1035700002001068436C13F007000860C3F30220D8
:10358000486013F018008860C3F34010C860C3F3AC
:1035900080100861C3F3C0104861C3F3C020886184
:1035A000C3F30030C861C3F340300862C3F3803016
:1035B0004862C3F30640886200207047020010682A
:1035C000036C03F0FF000860C3F306204860C3F3F8
:1035D000C0308860C3F30740C86000207047020015
:1035E000402905D11068D0F8900010F00F0004E0D9
:1035F0001068D0F8980010F00F00704701000868BC
:10360000D0F8C40010F00700704770B4030093F8BE
:103610005C4011F4C07F2000C0B2012803D020001C
:10362000C0B202286CD11868856D11F0070F01D067
:10363000E8071DD511F0380F01D0A80718D511F4EF
:10364000E07F01D0680713D511F4F05F01D028079F
:103650000ED511F4604F01D0E80609D511F4403FB2
:1036600001D0A80604D511F47C0F07D0680605D454
:103670001868C06D50F001001E68F06511F0070F6A
:1036800001D0E8071DD411F0380F01D0A80718D4D5
:1036900011F4E07F01D0680713D411F4F05F01D07A
:1036A00028070ED411F4604F01D0E80609D411F4B4
:1036B000403F01D0A80604D411F47C0F07D068065F
:1036C00005D51868C06D50F002001E68F065080648
:1036D00006D51868D0F8DC0010431E68C6F8DC0078
:1036E000C80506D51868D0F8E00010431E68C6F873
:1036F000E0001868406D08431E687065002004E013
:10370000186E50F002001866012070BC70472DE959
:10371000FE4F8146D9F80000046D14F4E054D9F846
:103720000000406D0440D9F80000056D15F0070554
:10373000D9F80000406D0540D9F80000066D16F07C
:103740003806D9F80000406D0640D9F80000076D32
:1037500017F47107D9F80000406D0740D9F8000050
:10376000D0F8508018F46028D9F80000406D10EAB5
:103770000808D9F80000D0F854A0D9F80000D0F813
:1037800050B05FEA4B6009D55FEA4A6006D5402039
:10379000D9F800100865484600F021FE5FEACB50DA
:1037A00015D55FEACA5012D5D9F80000D0F8D81064
:1037B000D9F80000D0F8E000014000914FF480708B
:1037C000D9F8001008650099484600F009FE002C61
:1037D00006D0D9F8000004652100484600F001FE3B
:1037E000002D06D0D9F80000056529004846FEF7EF
:1037F0005DF9002E06D0D9F8000006653100484674
:1038000000F0F0FD5FEA8B500AD55FEA8A5007D5D9
:103810004FF40070D9F800100865484600F0E3FD49
:103820005FEA0B6014D55FEA0A6011D5D9F8000091
:10383000D0F8D410D9F80000D0F8DC000140019194
:103840008020D9F8001008650199484600F0CCFDA9
:103850005FEA8B400AD55FEA8A4007D54FF40050F3
:10386000D9F800100865484600F0BFFD5FEA0B403C
:103870000AD55FEA0A4007D54FF40040D9F8001096
:103880000865484600F0B2FD5FEA4B400DD55FEA9F
:103890004A400AD54FF48040D9F800100865D9F89D
:1038A000600050F08000C9F86000B8F1000F07D048
:1038B000D9F80000C0F850804146484600F097FD16
:1038C000002F07D0D9F800000765D9F86000384309
:1038D000C9F86000D9F86000002802D0484600F01E
:1038E00087FDBDE8F78F44490268444B9A4201D1F5
:1038F00011F554710268424B9A4201D111F5D4611D
:1039000001640268D2F8802032F4F812436B52EA64
:1039100003420368C3F8802011F170024264026818
:10392000D2F8802032F07062836B52EA036203683F
:10393000C3F8802011F1B002826411F5C472C26430
:1039400011F51872026511F51E7242650A0011F533
:1039500054739A4203D200231360121DF7E7704795
:10396000F0B54C68002C06D10C698D6825430C68B5
:1039700055EA844506E00E698C6826430D68354398
:1039800055F080450C6ACF6957EA04678C69274374
:103990004E693E43CC6856EA0446476D482404FB12
:1039A00003773D603C1D2660271D5FF0000C114C25
:1039B000D1F80CE014F80E40A44519D202EB0C0427
:1039C000E47802EB0C0E9EF802E05FEA0E4E5EEA2F
:1039D000046E02EB0C0464785EEA042E12F80C40CC
:1039E00054EA0E0EC7F800E03F1D1CF1040CDEE7A0
:1039F000F0BD00005C46000800A4004000680040E4
:103A0000006C00402DE9FC470400002C01D101208E
:103A100062E22078C00760D5DFF88007006810F008
:103A20000C000600DFF88407006810F003000700B0
:103A30000C2E01D1032F01D0082E09D1DFF8540735
:103A40000068800349D56068002846D1012043E220
:103A50006068B0F5803F06D1DFF83807016851F49F
:103A60008031016018E06068B0F5A02F0AD1DFF85E
:103A70002407016851F480210160016851F480310C
:103A8000016009E0DFF80C07016831F48031016062
:103A9000016831F480210160606800280ED0FDF7D4
:103AA000A3FD0500DFF8EC060068800315D4FDF7E0
:103AB0009BFD401B6528F5D303200DE2FDF794FD27
:103AC0000500DFF8D0060068800306D5FDF78CFD01
:103AD000401B6528F5D30320FEE12078800766D5DA
:103AE000DFF8B806006810F00C000600DFF8BC062E
:103AF000006810F0030007000C2E01D1022F01D046
:103B0000042E1BD1DFF88C060068400504D5E06860
:103B1000002801D10120DFE1DFF87C06016831F0E7
:103B2000FE41226951EA02610160DFF87C0600680B
:103B300000F01AFC00283AD00120CDE1E06800280E
:103B40001FD0DFF85086D8F8000050F48070C8F815
:103B50000000FDF749FD0500D8F80000400506D437
:103B6000FDF742FD401B0328F6D30320B4E1DFF844
:103B70002806016831F0FE41226951EA02610160C4
:103B800015E0DFF81086D8F8000030F48070C8F82F
:103B90000000FDF729FD0500D8F80000400506D516
:103BA000FDF722FD401B0328F6D3032094E1207883
:103BB00000072ED56069002815D0DFF8F485D8F805
:103BC000000050F00100C8F80000FDF70DFD0500F1
:103BD000D8F8000080071CD4FDF706FD401B032821
:103BE000F6D3032078E1DFF8C885D8F80000400854
:103BF0004000C8F80000FDF7F7FC0500D8F8000009
:103C0000800706D5FDF7F0FC401B0328F6D3032000
:103C100062E12078400740F181805FF00008DFF822
:103C20009495D9F80000C0000DD4D9F8000050F0E8
:103C30008050C9F80000D9F8000010F080500090C2
:103C4000009801208046DFF870A5DAF80000C00572
:103C500013D4DAF8000050F48070CAF80000FDF7C1
:103C6000C3FC0500DAF80000C00506D4FDF7BCFC73
:103C7000401B0328F6D303202EE1A068012806D1BB
:103C8000DFF83805016851F00101016017E0A06814
:103C900005280AD1DFF82405016851F0040101600C
:103CA000016851F00101016009E0DFF810050168C9
:103CB000490849000160016831F004010160A06811
:103CC000002810D0FDF790FC0500DFF8F004006834
:103CD000800719D4FDF788FC401B41F289318842E6
:103CE000F3D30320F8E0FDF77FFC0500DFF8CC04F8
:103CF0000068800708D5FDF777FC401B41F2893149
:103D00008842F3D30320E7E04046C0B2012805D142
:103D1000D9F8000030F08050C9F800002078800603
:103D20002ED5A069002815D0DFF89484D8F80000BB
:103D300050F00100C8F80000FDF756FC0500D8F867
:103D4000000080071CD4FDF74FFC401B0328F6D36E
:103D50000320C1E0DFF86884D8F800004008400084
:103D6000C8F80000FDF740FC0500D8F80000800707
:103D700006D5FDF739FC401B0328F6D30320ABE042
:103D8000E069002800F0A780DFF81004006810F058
:103D90000C000C286CD0E06902284BD1DFF8F493BA
:103DA000D9F8000030F08070C9F80000FDF71CFC65
:103DB0008046D9F80000800107D5FDF715FCB0EB6F
:103DC00008000328F5D3032086E0DFF8E0130A6833
:103DD000DFF8F0030240206A0243606A401E52EAA4
:103DE0000012A06A52EA0022206B4008401E52EAEC
:103DF0004052606B4008401E52EA4062E06A52EA5C
:103E0000C0620A60D9F8000050F08070C9F8000064
:103E1000086850F080700860FDF7E6FB0500D9F8EF
:103E20000000800157D4FDF7DFFB401B0328F6D3C9
:103E3000032051E0DFF85C83D8F8000030F0807098
:103E4000C8F80000FDF7D0FB0500D8F8000080019D
:103E500006D5FDF7C9FB401B0328F6D303203BE042
:103E6000DFF848130A68DFF8600302400A6032E0B6
:103E7000E069012801D101202EE0DFF8300300685D
:103E8000070017F00300216A884222D117F0F000E2
:103E9000616A491EB0EB011F1BD117F4FE40A16AF5
:103EA000B0EB012F15D117F07840E16AB0EBC16F8C
:103EB0000FD117F4C000216B4908491EB0EB415FD8
:103EC00007D117F0C060616B4908491EB0EB416F24
:103ED00001D0012000E00020BDE8F6872DE9F04781
:103EE00004000D005FF00008002C01D10120EAE081
:103EF000DFF8D892D9F8000010F00F00A8420ED2D7
:103F0000D9F80000000900012843C9F80000D9F8D9
:103F1000000010F00F00A84201D00120D3E020786B
:103F2000C00763D56068032821D1DFF86802006804
:103F3000800101D40120C6E000F005F90700DFF898
:103F40009002874234D3DFF85412086810F0F00F63
:103F500005D0207880072BD5A068002828D108201C
:103F60000A6860F307120A608020804620E06068DB
:103F7000022806D1DFF81C020068800308D4012063
:103F8000A1E0DFF810020068400501D401209AE0AA
:103F900000F09BF80700DFF83802874208D3DFF80B
:103FA000FC010821026861F307120260802080464C
:103FB000DFF8E8A1DAF80010890889006068014399
:103FC000CAF80010FDF710FB0600DAF8000010F048
:103FD0000C006168B0EB810F08D0FDF705FB801B7A
:103FE00041F289318842F0D303206CE020788007C9
:103FF0001BD52078400705D5DFF8A001016851F4F2
:10400000E06101602078000706D5DFF89001072104
:10401000026861F30D220260DFF880110A6832F055
:10402000F002A06802430A6008E0B8F1800F05D1F1
:10403000DFF86801016831F0F0010160D9F8000093
:1040400010F00F00854218D2D9F8000000090001D5
:104050002843C9F80000FDF7C7FA0600D9F80000A8
:1040600010F00F00A84208D0FDF7BEFA801B41F205
:1040700089318842F2D3032025E02078400706D515
:1040800046490A6832F4E062E06802430A60207838
:10409000000707D54148016831F46051226951EAAF
:1040A000C201016000F011F84A493C4A1268C2F3AB
:1040B0000312895C11F01F01C8403A4908603A4870
:1040C000006800F051F9BDE8F08770B43348056826
:1040D00015F00C05042D01D1314832E0056815F0CA
:1040E0000C05082D01D13C482BE0006810F00C00B5
:1040F0000C2825D12D4D286810F0030002002868F7
:10410000C0F30310401C0400032A08D13248B0FB5E
:10411000F4F62868C0F306204643310007E0204843
:10412000B0FBF4F62868C0F3062046433100286847
:10413000C0F34160401C40000300B1FBF3F000E01D
:10414000002070BC704710B41848046814F00304D1
:104150000168C1F303135B1C032C08D11E49B1FB9A
:10416000F3F20168C1F3062101FB02F107E00C49FB
:10417000B1FBF3F20168C1F3062101FB02F1006813
:10418000C0F34160401C4200B1FBF2F010BC70472C
:10419000000000000010024004100240081002401D
:1041A0000024F400340000202C0000200C100240F9
:1041B00094100240581002400070004090100240DD
:1041C000981002400C809F01FCFFEEFE0020024090
:1041D00001B4C4046C460008005A620270B40200C4
:1041E00092F83C00012801D1022057E0012082F81A
:1041F0003C00022082F83D00106843681068846823
:10420000DFF89C501068A84209D01068DFF894606D
:10421000B04204D01068DFF89060B04204D133F4AB
:10422000700318004B680343DFF880000340086800
:104230000343106843601068A84221D01068B0F1B1
:10424000804F1DD01068DFF86850A84218D0106861
:10425000DFF86050A84213D01068DFF85C50A84225
:104260000ED01068DFF83C50A84209D01068DFF883
:104270004C50A84204D01068DFF82C50A84206D158
:1042800034F0800420008C680443106884600120AE
:1042900082F83D00002082F83C00002070BC70478E
:1042A000002C014000340140005001408FFFFFFD11
:1042B0000004004000080040000C004000400140A5
:1042C00062B38B0708D0521E11F8013B00F8013B86
:1042D00000F024808B07F6D1830740F0208000BFD8
:1042E000103A07D330B4B1E83810103AA0E83810CB
:1042F000F9D230BC530724BFB1E80810A0E8081079
:1043000044BF51F8043B40F8043BD20724BF31F8C6
:10431000022B20F8022B44BF0B7803707047121F4A
:1043200017D35B0009D151F8043B20F8023B1B0C6A
:10433000121F20F8023BF6D20BE051F8043B00F8C4
:10434000013B1B0A20F8023B1B0C121F00F8013B2B
:10435000F3D238BF121D521E24BF11F8013B00F8E2
:10436000013BF8D87047704738B504000025134961
:10437000086800281DD04FF47A700968B0FBF1F08E
:104380000F490968B1FBF0F0FEF710FB00280DD1D2
:10439000102C08D2002221005FF0FF30FEF7EDFA6A
:1043A0000848046007E00120050004E00120050042
:1043B00001E0012005002800C0B232BD300000201D
:1043C000340000202C000020704770477047704771
:1043D0007047704770477047704770477047704725
:1043E0007047704770477047704770477047704715
:1043F00070470000FEE7FEE7FEE7FEE7FEE77047D6
:104400007047704780B500F07BF801BD10B53148AA
:104410000068C00622D53048816D09684C68D4F523
:10442000005441F641718C4216D32C490A68126837
:10443000520852000B681A604FF40052836D1B68DB
:104440005A600A68126852F0010209680A60FCF7B3
:10445000CBF92348046001E0224804601020FEF7F5
:10446000E9F910BD80B51D48FCF7C9FF01BD80B555
:104470001D48FCF7C4FF01BD80B51C48FFF747F994
:1044800001BD80B51948FFF742F901BD80B512485A
:10449000FCF7BFF901BD80B51548FCF7BAF901BDBD
:1044A00080B51448FEF7F2FB01BD80B51248FFF756
:1044B0002EF901BD80B51048FFF729F901BD80B57F
:1044C0000E48FFF724F901BD80B50C48FFF71FF92E
:1044D00001BD000014040140F4440020BC4500204C
:1044E000204700201C4700201C460020C843002015
:1044F000584500207C4600202C4400209044002099
:1045000003490A680348006882180A60704700BFC0
:104510002C4700203000002030B4002512E050F875
:10452000042BD30744BF4A44521E091F042942F8F2
:10453000045BFAD213468C0744BF15809B1CC90745
:1045400048BF1D7050F8041B0029E8D130BC7047EB
:10455000384000203C41002040420020C843002059
:104560002C440020904400200010000400010000B2
:104570000000004800000048000000481000000053
:10458000010000000024F40010B5074979441831F7
:10459000064C7C44163404E00A68081D1144884720
:1045A0000146A142F8D110BD2C0000004C000000D3
:1045B0004EF68851CEF20001086840F470000860A1
:1045C000BFF34F8FBFF36F8F4FF00170E1EE100A12
:1045D0007047000045FFFFFFFC4600003800002048
:1045E00000000000DBCFFFFF3800000064FFFFFF8A
:1045F000000000200000000000F00DF8002801D0AD
:10460000FFF7C2FFAFF300800020AFF30080FCF79C
:10461000FAFF00F002F80120704700F001B8000036
:104620000746384600F002F8FBE7000080B5AFF31C
:104630000080024A11001820ABBEFBE726000200F2
:104640000548014603B4684680F30988AFF300804B
:10465000FFF7AEFFFFF7D0FFA5EDF5FE0001020367
:1046600004050607080C1014182030400000000054
:104670000000000001020304060708090148804702
:10468000014800478D46000841460008024801687D
:1046900051F470010160704788ED00E0FFF7FEBF44
:1046A000FFF7FEBFFFF7FEBFFFF7FEBFFFF7FEBF3E
:1046B000FFF7FEBFFFF7FEBFFFF7FEBFFFF7FEBF2E
:1046C000FFF7FEBFFFF7FEBFFFF7FEBFFFF7FEBF1E
:1046D000FFF7FEBFFFF7FEBFFFF7FEBFFFF7FEBF0E
:1046E000FFF7FEBFFFF7FEBFFFF7FEBFFFF7FEBFFE
:1046F000FFF7FEBFFFF7FEBFFFF7FEBFFFF7FEBFEE
:10470000FFF7FEBFFFF7FEBFFFF7FEBFFFF7FEBFDD
:10471000FFF7FEBFFFF7FEBFFFF7FEBFFFF7FEBFCD
:10472000FFF7FEBFFFF7FEBFFFF7FEBFFFF7FEBFBD
:10473000FFF7FEBFFFF7FEBFFFF7FEBFFFF7FEBFAD
:10474000FFF7FEBFFFF7FEBFFFF7FEBFFFF7FEBF9D
:10475000FFF7FEBFFFF7FEBFFFF7FEBFFFF7FEBF8D
:10476000FFF7FEBFFFF7FEBFFFF7FEBFFFF7FEBF7D
:10477000FFF7FEBFFFF7FEBFFFF7FEBFFFF7FEBF6D
:10478000FFF7FEBFFFF7FEBFFFF7FEBFFFF7FEBF5D
:10479000FFF7FEBFFFF7FEBFFFF7FEBFFFF7FEBF4D
:1047A000FFF7FEBFFFF7FEBFFFF7FEBFFFF7FEBF3D
:1047B000FFF7FEBFFFF7FEBFFFF7FEBFFFF7FEBF2D
:1047C000FFF7FEBFFFF7FEBFFFF7FEBFFFF7FEBF1D
:1047D000FFF7FEBFFFF7FEBFFFF7FEBFFFF7FEBF0D
:1047E000FFF7FEBFFFF7FEBFFFF7FEBFFFF7FEBFFD
:1047F000FFF7FEBFFFF7FEBFFFF7FEBFFFF7FEBFED
:040000050800464168
:00000001FF
